{"abi":[{"type":"constructor","inputs":[{"name":"_taker","type":"address","internalType":"address"},{"name":"_maker","type":"address","internalType":"address"},{"name":"_secretHash","type":"bytes32","internalType":"bytes32"},{"name":"_timeout","type":"uint256","internalType":"uint256"},{"name":"_tokenContract","type":"address","internalType":"address"},{"name":"_amount","type":"uint256","internalType":"uint256"}],"stateMutability":"nonpayable"},{"type":"receive","stateMutability":"payable"},{"type":"function","name":"amount","inputs":[],"outputs":[{"name":"","type":"uint256","internalType":"uint256"}],"stateMutability":"view"},{"type":"function","name":"maker","inputs":[],"outputs":[{"name":"","type":"address","internalType":"address"}],"stateMutability":"view"},{"type":"function","name":"publicCancel","inputs":[],"outputs":[],"stateMutability":"nonpayable"},{"type":"function","name":"publicWithdraw","inputs":[{"name":"secret","type":"bytes32","internalType":"bytes32"}],"outputs":[],"stateMutability":"nonpayable"},{"type":"function","name":"secretHash","inputs":[],"outputs":[{"name":"","type":"bytes32","internalType":"bytes32"}],"stateMutability":"view"},{"type":"function","name":"taker","inputs":[],"outputs":[{"name":"","type":"address","internalType":"address"}],"stateMutability":"view"},{"type":"function","name":"timeout","inputs":[],"outputs":[{"name":"","type":"uint256","internalType":"uint256"}],"stateMutability":"view"},{"type":"function","name":"tokenContract","inputs":[],"outputs":[{"name":"","type":"address","internalType":"contract IERC20"}],"stateMutability":"view"},{"type":"function","name":"withdraw","inputs":[{"name":"secret","type":"bytes32","internalType":"bytes32"}],"outputs":[],"stateMutability":"nonpayable"},{"type":"event","name":"Cancelled","inputs":[],"anonymous":false},{"type":"event","name":"Withdrawn","inputs":[{"name":"secret","type":"bytes32","indexed":false,"internalType":"bytes32"}],"anonymous":false}],"bytecode":{"object":"0x610140604052348015610010575f5ffd5b506040516113f03803806113f083398181016040528101906100329190610247565b8585858585855f811161007a576040517f08c379a00000000000000000000000000000000000000000000000000000000081526004016100719061032a565b60405180910390fd5b4283116100bc576040517f08c379a00000000000000000000000000000000000000000000000000000000081526004016100b3906103b8565b60405180910390fd5b8573ffffffffffffffffffffffffffffffffffffffff1660808173ffffffffffffffffffffffffffffffffffffffff16815250508473ffffffffffffffffffffffffffffffffffffffff1660a08173ffffffffffffffffffffffffffffffffffffffff16815250508360c081815250508260e081815250508173ffffffffffffffffffffffffffffffffffffffff166101008173ffffffffffffffffffffffffffffffffffffffff16815250508061012081815250505050505050505050505050506103d6565b5f5ffd5b5f73ffffffffffffffffffffffffffffffffffffffff82169050919050565b5f6101b082610187565b9050919050565b6101c0816101a6565b81146101ca575f5ffd5b50565b5f815190506101db816101b7565b92915050565b5f819050919050565b6101f3816101e1565b81146101fd575f5ffd5b50565b5f8151905061020e816101ea565b92915050565b5f819050919050565b61022681610214565b8114610230575f5ffd5b50565b5f815190506102418161021d565b92915050565b5f5f5f5f5f5f60c0878903121561026157610260610183565b5b5f61026e89828a016101cd565b965050602061027f89828a016101cd565b955050604061029089828a01610200565b94505060606102a189828a01610233565b93505060806102b289828a016101cd565b92505060a06102c389828a01610233565b9150509295509295509295565b5f82825260208201905092915050565b7f457363726f773a20616d6f756e74206d75737420626520706f736974697665005f82015250565b5f610314601f836102d0565b915061031f826102e0565b602082019050919050565b5f6020820190508181035f83015261034181610308565b9050919050565b7f457363726f773a2074696d656f7574206d75737420626520696e2066757475725f8201527f6500000000000000000000000000000000000000000000000000000000000000602082015250565b5f6103a26021836102d0565b91506103ad82610348565b604082019050919050565b5f6020820190508181035f8301526103cf81610396565b9050919050565b60805160a05160c05160e0516101005161012051610f786104785f395f81816104bf01528181610572015261066601525f818161021c0152818161051e015261062901525f8181610240015281816103d30152818161072b01526107e401525f81816102a2015281816104e3015261084701525f81816101f8015261079001525f8181610373015281816103f70152818161042501526109180152610f785ff3fe608060405260043610610089575f3560e01c8063782b360211610058578063782b36021461013a5780637a3bae42146101645780638e19899e1461017a578063aa8c217c146101a2578063d29e6803146101cc57610090565b806350655d8c1461009457806355a373d6146100be57806356ea5f90146100e857806370dea79a1461011057610090565b3661009057005b5f5ffd5b34801561009f575f5ffd5b506100a86101f6565b6040516100b591906109b5565b60405180910390f35b3480156100c9575f5ffd5b506100d261021a565b6040516100df9190610a29565b60405180910390f35b3480156100f3575f5ffd5b5061010e60048036038101906101099190610a79565b61023e565b005b34801561011b575f5ffd5b506101246103d1565b6040516101319190610abc565b60405180910390f35b348015610145575f5ffd5b5061014e6103f5565b60405161015b91906109b5565b60405180910390f35b34801561016f575f5ffd5b50610178610419565b005b348015610185575f5ffd5b506101a0600480360381019061019b9190610a79565b610423565b005b3480156101ad575f5ffd5b506101b66104bd565b6040516101c39190610abc565b60405180910390f35b3480156101d7575f5ffd5b506101e06104e1565b6040516101ed9190610ae4565b60405180910390f35b7f000000000000000000000000000000000000000000000000000000000000000081565b7f000000000000000000000000000000000000000000000000000000000000000081565b7f000000000000000000000000000000000000000000000000000000000000000042116102a0576040517f08c379a000000000000000000000000000000000000000000000000000000000815260040161029790610b57565b60405180910390fd5b7f00000000000000000000000000000000000000000000000000000000000000006002826040516020016102d49190610b95565b6040516020818303038152906040526040516102f09190610c01565b602060405180830381855afa15801561030b573d5f5f3e3d5ffd5b5050506040513d601f19601f8201168201806040525081019061032e9190610c2b565b1461036e576040517f08c379a000000000000000000000000000000000000000000000000000000000815260040161036590610ca0565b60405180910390fd5b6103977f0000000000000000000000000000000000000000000000000000000000000000610505565b7f44654674e66e9e53d34afdf3e9513fb94b4c8b946e980d6958ef4e6a37a153e3816040516103c69190610ae4565b60405180910390a150565b7f000000000000000000000000000000000000000000000000000000000000000081565b7f000000000000000000000000000000000000000000000000000000000000000081565b610421610729565b565b7f000000000000000000000000000000000000000000000000000000000000000073ffffffffffffffffffffffffffffffffffffffff163373ffffffffffffffffffffffffffffffffffffffff16146104b1576040517f08c379a00000000000000000000000000000000000000000000000000000000081526004016104a890610d2e565b60405180910390fd5b6104ba816107e2565b50565b7f000000000000000000000000000000000000000000000000000000000000000081565b7f000000000000000000000000000000000000000000000000000000000000000081565b5f73ffffffffffffffffffffffffffffffffffffffff167f000000000000000000000000000000000000000000000000000000000000000073ffffffffffffffffffffffffffffffffffffffff1603610626575f8173ffffffffffffffffffffffffffffffffffffffff167f000000000000000000000000000000000000000000000000000000000000000060405161059d90610d6f565b5f6040518083038185875af1925050503d805f81146105d7576040519150601f19603f3d011682016040523d82523d5f602084013e6105dc565b606091505b5050905080610620576040517f08c379a000000000000000000000000000000000000000000000000000000000815260040161061790610dcd565b60405180910390fd5b50610726565b5f7f000000000000000000000000000000000000000000000000000000000000000073ffffffffffffffffffffffffffffffffffffffff1663a9059cbb837f00000000000000000000000000000000000000000000000000000000000000006040518363ffffffff1660e01b81526004016106a2929190610deb565b6020604051808303815f875af11580156106be573d5f5f3e3d5ffd5b505050506040513d601f19601f820116820180604052508101906106e29190610e47565b905080610724576040517f08c379a000000000000000000000000000000000000000000000000000000000815260040161071b90610ebc565b60405180910390fd5b505b50565b7f0000000000000000000000000000000000000000000000000000000000000000421161078b576040517f08c379a000000000000000000000000000000000000000000000000000000000815260040161078290610b57565b60405180910390fd5b6107b47f0000000000000000000000000000000000000000000000000000000000000000610505565b7f63b958841f79ab97cb5456da181454b9932c0e15a3b17f1cbd27e2a8bc61043760405160405180910390a1565b7f0000000000000000000000000000000000000000000000000000000000000000421115610845576040517f08c379a000000000000000000000000000000000000000000000000000000000815260040161083c90610f24565b60405180910390fd5b7f00000000000000000000000000000000000000000000000000000000000000006002826040516020016108799190610b95565b6040516020818303038152906040526040516108959190610c01565b602060405180830381855afa1580156108b0573d5f5f3e3d5ffd5b5050506040513d601f19601f820116820180604052508101906108d39190610c2b565b14610913576040517f08c379a000000000000000000000000000000000000000000000000000000000815260040161090a90610ca0565b60405180910390fd5b61093c7f0000000000000000000000000000000000000000000000000000000000000000610505565b7f44654674e66e9e53d34afdf3e9513fb94b4c8b946e980d6958ef4e6a37a153e38160405161096b9190610ae4565b60405180910390a150565b5f73ffffffffffffffffffffffffffffffffffffffff82169050919050565b5f61099f82610976565b9050919050565b6109af81610995565b82525050565b5f6020820190506109c85f8301846109a6565b92915050565b5f819050919050565b5f6109f16109ec6109e784610976565b6109ce565b610976565b9050919050565b5f610a02826109d7565b9050919050565b5f610a13826109f8565b9050919050565b610a2381610a09565b82525050565b5f602082019050610a3c5f830184610a1a565b92915050565b5f5ffd5b5f819050919050565b610a5881610a46565b8114610a62575f5ffd5b50565b5f81359050610a7381610a4f565b92915050565b5f60208284031215610a8e57610a8d610a42565b5b5f610a9b84828501610a65565b91505092915050565b5f819050919050565b610ab681610aa4565b82525050565b5f602082019050610acf5f830184610aad565b92915050565b610ade81610a46565b82525050565b5f602082019050610af75f830184610ad5565b92915050565b5f82825260208201905092915050565b7f457363726f773a2074696d656f757420686173206e6f742070617373656400005f82015250565b5f610b41601e83610afd565b9150610b4c82610b0d565b602082019050919050565b5f6020820190508181035f830152610b6e81610b35565b9050919050565b5f819050919050565b610b8f610b8a82610a46565b610b75565b82525050565b5f610ba08284610b7e565b60208201915081905092915050565b5f81519050919050565b5f81905092915050565b8281835e5f83830152505050565b5f610bdb82610baf565b610be58185610bb9565b9350610bf5818560208601610bc3565b80840191505092915050565b5f610c0c8284610bd1565b915081905092915050565b5f81519050610c2581610a4f565b92915050565b5f60208284031215610c4057610c3f610a42565b5b5f610c4d84828501610c17565b91505092915050565b7f457363726f773a20696e76616c696420736563726574000000000000000000005f82015250565b5f610c8a601683610afd565b9150610c9582610c56565b602082019050919050565b5f6020820190508181035f830152610cb781610c7e565b9050919050565b7f457363726f774473743a2063616c6c6572206973206e6f74207468652074616b5f8201527f6572000000000000000000000000000000000000000000000000000000000000602082015250565b5f610d18602283610afd565b9150610d2382610cbe565b604082019050919050565b5f6020820190508181035f830152610d4581610d0c565b9050919050565b50565b5f610d5a5f83610bb9565b9150610d6582610d4c565b5f82019050919050565b5f610d7982610d4f565b9150819050919050565b7f457363726f773a206e6174697665207472616e73666572206661696c656400005f82015250565b5f610db7601e83610afd565b9150610dc282610d83565b602082019050919050565b5f6020820190508181035f830152610de481610dab565b9050919050565b5f604082019050610dfe5f8301856109a6565b610e0b6020830184610aad565b9392505050565b5f8115159050919050565b610e2681610e12565b8114610e30575f5ffd5b50565b5f81519050610e4181610e1d565b92915050565b5f60208284031215610e5c57610e5b610a42565b5b5f610e6984828501610e33565b91505092915050565b7f457363726f773a204552433230207472616e73666572206661696c65640000005f82015250565b5f610ea6601d83610afd565b9150610eb182610e72565b602082019050919050565b5f6020820190508181035f830152610ed381610e9a565b9050919050565b7f457363726f773a2074696d656f757420686173207061737365640000000000005f82015250565b5f610f0e601a83610afd565b9150610f1982610eda565b602082019050919050565b5f6020820190508181035f830152610f3b81610f02565b905091905056fea2646970667358221220e21ea89cf36d1ed69812812e9e3ce01a76dce45268b9232a157f7a4e91415ed664736f6c634300081e0033","linkReferences":{}},"methodIdentifiers":{"amount()":"aa8c217c","maker()":"50655d8c","publicCancel()":"7a3bae42","publicWithdraw(bytes32)":"56ea5f90","secretHash()":"d29e6803","taker()":"782b3602","timeout()":"70dea79a","tokenContract()":"55a373d6","withdraw(bytes32)":"8e19899e"},"id":3}