{"abi":[{"type":"constructor","inputs":[{"name":"_taker","type":"address","internalType":"address"},{"name":"_maker","type":"address","internalType":"address"},{"name":"_secretHash","type":"bytes32","internalType":"bytes32"},{"name":"_timeout","type":"uint256","internalType":"uint256"},{"name":"_tokenContract","type":"address","internalType":"address"},{"name":"_amount","type":"uint256","internalType":"uint256"},{"name":"_safetyDeposit","type":"uint256","internalType":"uint256"}],"stateMutability":"nonpayable"},{"type":"receive","stateMutability":"payable"},{"type":"function","name":"amount","inputs":[],"outputs":[{"name":"","type":"uint256","internalType":"uint256"}],"stateMutability":"view"},{"type":"function","name":"cancelled","inputs":[],"outputs":[{"name":"","type":"bool","internalType":"bool"}],"stateMutability":"view"},{"type":"function","name":"getContractBalance","inputs":[],"outputs":[{"name":"tokenBalance","type":"uint256","internalType":"uint256"},{"name":"ethBalance","type":"uint256","internalType":"uint256"}],"stateMutability":"view"},{"type":"function","name":"maker","inputs":[],"outputs":[{"name":"","type":"address","internalType":"address"}],"stateMutability":"view"},{"type":"function","name":"publicCancel","inputs":[],"outputs":[],"stateMutability":"nonpayable"},{"type":"function","name":"publicWithdraw","inputs":[{"name":"secret","type":"bytes32","internalType":"bytes32"}],"outputs":[],"stateMutability":"nonpayable"},{"type":"function","name":"safetyDeposit","inputs":[],"outputs":[{"name":"","type":"uint256","internalType":"uint256"}],"stateMutability":"view"},{"type":"function","name":"secretHash","inputs":[],"outputs":[{"name":"","type":"bytes32","internalType":"bytes32"}],"stateMutability":"view"},{"type":"function","name":"taker","inputs":[],"outputs":[{"name":"","type":"address","internalType":"address"}],"stateMutability":"view"},{"type":"function","name":"timeout","inputs":[],"outputs":[{"name":"","type":"uint256","internalType":"uint256"}],"stateMutability":"view"},{"type":"function","name":"tokenContract","inputs":[],"outputs":[{"name":"","type":"address","internalType":"contract IERC20"}],"stateMutability":"view"},{"type":"function","name":"withdraw","inputs":[{"name":"secret","type":"bytes32","internalType":"bytes32"}],"outputs":[],"stateMutability":"nonpayable"},{"type":"function","name":"withdrawn","inputs":[],"outputs":[{"name":"","type":"bool","internalType":"bool"}],"stateMutability":"view"},{"type":"event","name":"Cancelled","inputs":[{"name":"recipient","type":"address","indexed":false,"internalType":"address"}],"anonymous":false},{"type":"event","name":"Withdrawn","inputs":[{"name":"secret","type":"bytes32","indexed":false,"internalType":"bytes32"},{"name":"recipient","type":"address","indexed":false,"internalType":"address"}],"anonymous":false}],"bytecode":{"object":"0x6101606040525f5f5f6101000a81548160ff0219169083151502179055505f5f60016101000a81548160ff021916908315150217905550348015610041575f5ffd5b506040516121b13803806121b1833981810160405281019061006391906102c6565b868686868686865f82116100ac576040517f08c379a00000000000000000000000000000000000000000000000000000000081526004016100a3906103bd565b60405180910390fd5b4284116100ee576040517f08c379a00000000000000000000000000000000000000000000000000000000081526004016100e59061044b565b60405180910390fd5b5f8111610130576040517f08c379a0000000000000000000000000000000000000000000000000000000008152600401610127906104d9565b60405180910390fd5b8673ffffffffffffffffffffffffffffffffffffffff1660808173ffffffffffffffffffffffffffffffffffffffff16815250508573ffffffffffffffffffffffffffffffffffffffff1660a08173ffffffffffffffffffffffffffffffffffffffff16815250508460c081815250508360e081815250508273ffffffffffffffffffffffffffffffffffffffff166101008173ffffffffffffffffffffffffffffffffffffffff168152505081610120818152505080610140818152505050505050505050505050505050506104f7565b5f5ffd5b5f73ffffffffffffffffffffffffffffffffffffffff82169050919050565b5f61022f82610206565b9050919050565b61023f81610225565b8114610249575f5ffd5b50565b5f8151905061025a81610236565b92915050565b5f819050919050565b61027281610260565b811461027c575f5ffd5b50565b5f8151905061028d81610269565b92915050565b5f819050919050565b6102a581610293565b81146102af575f5ffd5b50565b5f815190506102c08161029c565b92915050565b5f5f5f5f5f5f5f60e0888a0312156102e1576102e0610202565b5b5f6102ee8a828b0161024c565b97505060206102ff8a828b0161024c565b96505060406103108a828b0161027f565b95505060606103218a828b016102b2565b94505060806103328a828b0161024c565b93505060a06103438a828b016102b2565b92505060c06103548a828b016102b2565b91505092959891949750929550565b5f82825260208201905092915050565b7f457363726f773a20616d6f756e74206d75737420626520706f736974697665005f82015250565b5f6103a7601f83610363565b91506103b282610373565b602082019050919050565b5f6020820190508181035f8301526103d48161039b565b9050919050565b7f457363726f773a2074696d656f7574206d75737420626520696e2066757475725f8201527f6500000000000000000000000000000000000000000000000000000000000000602082015250565b5f610435602183610363565b9150610440826103db565b604082019050919050565b5f6020820190508181035f83015261046281610429565b9050919050565b7f457363726f773a20736166657479206465706f736974206d75737420626520705f8201527f6f73697469766500000000000000000000000000000000000000000000000000602082015250565b5f6104c3602783610363565b91506104ce82610469565b604082019050919050565b5f6020820190508181035f8301526104f0816104b7565b9050919050565b60805160a05160c05160e051610100516101205161014051611bb36105fe5f395f81816102dd01528181610a44015261117701525f81816107b4015281816108780152818161096c01528181610f6b015261107f01525f8181610325015281816105cd01528181610614015281816108240152818161092f01528181610ef7015261102201525f8181610349015281816106b601528181610afa0152610c7401525f8181610448015281816107e90152610d7401525f818161030101528181610c3c01528181610f340152818161105e015261114001525f81816105320152818161057a015281816106da0152818161070801528181610e5e0152610ea60152611bb35ff3fe6080604052600436106100c5575f3560e01c8063782b36021161007e5780639a82a09a116100585780639a82a09a14610233578063aa8c217c1461025d578063c80ec52214610287578063d29e6803146102b1576100cc565b8063782b3602146101cb5780637a3bae42146101f55780638e19899e1461020b576100cc565b80631732c69f146100d057806350655d8c146100fa57806355a373d61461012457806356ea5f901461014e5780636f9fb98a1461017657806370dea79a146101a1576100cc565b366100cc57005b5f5ffd5b3480156100db575f5ffd5b506100e46102db565b6040516100f19190611242565b60405180910390f35b348015610105575f5ffd5b5061010e6102ff565b60405161011b919061129a565b60405180910390f35b34801561012f575f5ffd5b50610138610323565b604051610145919061130e565b60405180910390f35b348015610159575f5ffd5b50610174600480360381019061016f919061135e565b610347565b005b348015610181575f5ffd5b5061018a6105b2565b604051610198929190611389565b60405180910390f35b3480156101ac575f5ffd5b506101b56106b4565b6040516101c29190611242565b60405180910390f35b3480156101d6575f5ffd5b506101df6106d8565b6040516101ec919061129a565b60405180910390f35b348015610200575f5ffd5b506102096106fc565b005b348015610216575f5ffd5b50610231600480360381019061022c919061135e565b610706565b005b34801561023e575f5ffd5b506102476107a0565b60405161025491906113ca565b60405180910390f35b348015610268575f5ffd5b506102716107b2565b60405161027e9190611242565b60405180910390f35b348015610292575f5ffd5b5061029b6107d6565b6040516102a891906113ca565b60405180910390f35b3480156102bc575f5ffd5b506102c56107e7565b6040516102d291906113f2565b60405180910390f35b7f000000000000000000000000000000000000000000000000000000000000000081565b7f000000000000000000000000000000000000000000000000000000000000000081565b7f000000000000000000000000000000000000000000000000000000000000000081565b7f000000000000000000000000000000000000000000000000000000000000000042116103a9576040517f08c379a00000000000000000000000000000000000000000000000000000000081526004016103a090611465565b60405180910390fd5b5f5f9054906101000a900460ff16156103f7576040517f08c379a00000000000000000000000000000000000000000000000000000000081526004016103ee906114cd565b60405180910390fd5b5f60019054906101000a900460ff1615610446576040517f08c379a000000000000000000000000000000000000000000000000000000000815260040161043d90611535565b60405180910390fd5b7f000000000000000000000000000000000000000000000000000000000000000060028260405160200161047a9190611573565b60405160208183030381529060405260405161049691906115df565b602060405180830381855afa1580156104b1573d5f5f3e3d5ffd5b5050506040513d601f19601f820116820180604052508101906104d49190611609565b14610514576040517f08c379a000000000000000000000000000000000000000000000000000000000815260040161050b9061167e565b60405180910390fd5b60015f5f6101000a81548160ff0219169083151502179055506105567f000000000000000000000000000000000000000000000000000000000000000061080b565b7ff0d0864583a8231b5ff3c9d26b03e84a32b52495111e31e44d49e43a492dc7b2817f00000000000000000000000000000000000000000000000000000000000000006040516105a792919061169c565b60405180910390a150565b5f5f5f73ffffffffffffffffffffffffffffffffffffffff167f000000000000000000000000000000000000000000000000000000000000000073ffffffffffffffffffffffffffffffffffffffff1603610612575f47915091506106b0565b7f000000000000000000000000000000000000000000000000000000000000000073ffffffffffffffffffffffffffffffffffffffff166370a08231306040518263ffffffff1660e01b815260040161066b919061129a565b602060405180830381865afa158015610686573d5f5f3e3d5ffd5b505050506040513d601f19601f820116820180604052508101906106aa91906116ed565b47915091505b9091565b7f000000000000000000000000000000000000000000000000000000000000000081565b7f000000000000000000000000000000000000000000000000000000000000000081565b610704610af8565b565b7f000000000000000000000000000000000000000000000000000000000000000073ffffffffffffffffffffffffffffffffffffffff163373ffffffffffffffffffffffffffffffffffffffff1614610794576040517f08c379a000000000000000000000000000000000000000000000000000000000815260040161078b90611788565b60405180910390fd5b61079d81610c72565b50565b5f60019054906101000a900460ff1681565b7f000000000000000000000000000000000000000000000000000000000000000081565b5f5f9054906101000a900460ff1681565b7f000000000000000000000000000000000000000000000000000000000000000081565b5f73ffffffffffffffffffffffffffffffffffffffff167f000000000000000000000000000000000000000000000000000000000000000073ffffffffffffffffffffffffffffffffffffffff160361092c575f8173ffffffffffffffffffffffffffffffffffffffff167f00000000000000000000000000000000000000000000000000000000000000006040516108a3906117c9565b5f6040518083038185875af1925050503d805f81146108dd576040519150601f19603f3d011682016040523d82523d5f602084013e6108e2565b606091505b5050905080610926576040517f08c379a000000000000000000000000000000000000000000000000000000000815260040161091d90611827565b60405180910390fd5b50610af5565b5f7f000000000000000000000000000000000000000000000000000000000000000073ffffffffffffffffffffffffffffffffffffffff1663a9059cbb837f00000000000000000000000000000000000000000000000000000000000000006040518363ffffffff1660e01b81526004016109a8929190611845565b6020604051808303815f875af11580156109c4573d5f5f3e3d5ffd5b505050506040513d601f19601f820116820180604052508101906109e89190611896565b905080610a2a576040517f08c379a0000000000000000000000000000000000000000000000000000000008152600401610a219061190b565b60405180910390fd5b5f8273ffffffffffffffffffffffffffffffffffffffff167f0000000000000000000000000000000000000000000000000000000000000000604051610a6f906117c9565b5f6040518083038185875af1925050503d805f8114610aa9576040519150601f19603f3d011682016040523d82523d5f602084013e610aae565b606091505b5050905080610af2576040517f08c379a0000000000000000000000000000000000000000000000000000000008152600401610ae990611999565b60405180910390fd5b50505b50565b7f00000000000000000000000000000000000000000000000000000000000000004211610b5a576040517f08c379a0000000000000000000000000000000000000000000000000000000008152600401610b5190611465565b60405180910390fd5b5f5f9054906101000a900460ff1615610ba8576040517f08c379a0000000000000000000000000000000000000000000000000000000008152600401610b9f906114cd565b60405180910390fd5b5f60019054906101000a900460ff1615610bf7576040517f08c379a0000000000000000000000000000000000000000000000000000000008152600401610bee90611535565b60405180910390fd5b60015f60016101000a81548160ff021916908315150217905550610c19610ede565b7f398bd6b21ae4164ec322fb0eb8c2eb6277f36fd41903fbbed594dfe1255912817f0000000000000000000000000000000000000000000000000000000000000000604051610c68919061129a565b60405180910390a1565b7f0000000000000000000000000000000000000000000000000000000000000000421115610cd5576040517f08c379a0000000000000000000000000000000000000000000000000000000008152600401610ccc90611a01565b60405180910390fd5b5f5f9054906101000a900460ff1615610d23576040517f08c379a0000000000000000000000000000000000000000000000000000000008152600401610d1a906114cd565b60405180910390fd5b5f60019054906101000a900460ff1615610d72576040517f08c379a0000000000000000000000000000000000000000000000000000000008152600401610d6990611535565b60405180910390fd5b7f0000000000000000000000000000000000000000000000000000000000000000600282604051602001610da69190611573565b604051602081830303815290604052604051610dc291906115df565b602060405180830381855afa158015610ddd573d5f5f3e3d5ffd5b5050506040513d601f19601f82011682018060405250810190610e009190611609565b14610e40576040517f08c379a0000000000000000000000000000000000000000000000000000000008152600401610e379061167e565b60405180910390fd5b60015f5f6101000a81548160ff021916908315150217905550610e827f000000000000000000000000000000000000000000000000000000000000000061080b565b7ff0d0864583a8231b5ff3c9d26b03e84a32b52495111e31e44d49e43a492dc7b2817f0000000000000000000000000000000000000000000000000000000000000000604051610ed392919061169c565b60405180910390a150565b5f73ffffffffffffffffffffffffffffffffffffffff167f000000000000000000000000000000000000000000000000000000000000000073ffffffffffffffffffffffffffffffffffffffff160361101f575f7f000000000000000000000000000000000000000000000000000000000000000073ffffffffffffffffffffffffffffffffffffffff167f0000000000000000000000000000000000000000000000000000000000000000604051610f96906117c9565b5f6040518083038185875af1925050503d805f8114610fd0576040519150601f19603f3d011682016040523d82523d5f602084013e610fd5565b606091505b5050905080611019576040517f08c379a000000000000000000000000000000000000000000000000000000000815260040161101090611a69565b60405180910390fd5b50611228565b5f7f000000000000000000000000000000000000000000000000000000000000000073ffffffffffffffffffffffffffffffffffffffff1663a9059cbb7f00000000000000000000000000000000000000000000000000000000000000007f00000000000000000000000000000000000000000000000000000000000000006040518363ffffffff1660e01b81526004016110bb929190611845565b6020604051808303815f875af11580156110d7573d5f5f3e3d5ffd5b505050506040513d601f19601f820116820180604052508101906110fb9190611896565b90508061113d576040517f08c379a000000000000000000000000000000000000000000000000000000000815260040161113490611ad1565b60405180910390fd5b5f7f000000000000000000000000000000000000000000000000000000000000000073ffffffffffffffffffffffffffffffffffffffff167f00000000000000000000000000000000000000000000000000000000000000006040516111a2906117c9565b5f6040518083038185875af1925050503d805f81146111dc576040519150601f19603f3d011682016040523d82523d5f602084013e6111e1565b606091505b5050905080611225576040517f08c379a000000000000000000000000000000000000000000000000000000000815260040161121c90611b5f565b60405180910390fd5b50505b565b5f819050919050565b61123c8161122a565b82525050565b5f6020820190506112555f830184611233565b92915050565b5f73ffffffffffffffffffffffffffffffffffffffff82169050919050565b5f6112848261125b565b9050919050565b6112948161127a565b82525050565b5f6020820190506112ad5f83018461128b565b92915050565b5f819050919050565b5f6112d66112d16112cc8461125b565b6112b3565b61125b565b9050919050565b5f6112e7826112bc565b9050919050565b5f6112f8826112dd565b9050919050565b611308816112ee565b82525050565b5f6020820190506113215f8301846112ff565b92915050565b5f5ffd5b5f819050919050565b61133d8161132b565b8114611347575f5ffd5b50565b5f8135905061135881611334565b92915050565b5f6020828403121561137357611372611327565b5b5f6113808482850161134a565b91505092915050565b5f60408201905061139c5f830185611233565b6113a96020830184611233565b9392505050565b5f8115159050919050565b6113c4816113b0565b82525050565b5f6020820190506113dd5f8301846113bb565b92915050565b6113ec8161132b565b82525050565b5f6020820190506114055f8301846113e3565b92915050565b5f82825260208201905092915050565b7f457363726f773a2074696d656f757420686173206e6f742070617373656400005f82015250565b5f61144f601e8361140b565b915061145a8261141b565b602082019050919050565b5f6020820190508181035f83015261147c81611443565b9050919050565b7f457363726f773a20616c72656164792077697468647261776e000000000000005f82015250565b5f6114b760198361140b565b91506114c282611483565b602082019050919050565b5f6020820190508181035f8301526114e4816114ab565b9050919050565b7f457363726f773a20616c72656164792063616e63656c6c6564000000000000005f82015250565b5f61151f60198361140b565b915061152a826114eb565b602082019050919050565b5f6020820190508181035f83015261154c81611513565b9050919050565b5f819050919050565b61156d6115688261132b565b611553565b82525050565b5f61157e828461155c565b60208201915081905092915050565b5f81519050919050565b5f81905092915050565b8281835e5f83830152505050565b5f6115b98261158d565b6115c38185611597565b93506115d38185602086016115a1565b80840191505092915050565b5f6115ea82846115af565b915081905092915050565b5f8151905061160381611334565b92915050565b5f6020828403121561161e5761161d611327565b5b5f61162b848285016115f5565b91505092915050565b7f457363726f773a20696e76616c696420736563726574000000000000000000005f82015250565b5f61166860168361140b565b915061167382611634565b602082019050919050565b5f6020820190508181035f8301526116958161165c565b9050919050565b5f6040820190506116af5f8301856113e3565b6116bc602083018461128b565b9392505050565b6116cc8161122a565b81146116d6575f5ffd5b50565b5f815190506116e7816116c3565b92915050565b5f6020828403121561170257611701611327565b5b5f61170f848285016116d9565b91505092915050565b7f457363726f774473743a2063616c6c6572206973206e6f7420746865207573655f8201527f7200000000000000000000000000000000000000000000000000000000000000602082015250565b5f61177260218361140b565b915061177d82611718565b604082019050919050565b5f6020820190508181035f83015261179f81611766565b9050919050565b50565b5f6117b45f83611597565b91506117bf826117a6565b5f82019050919050565b5f6117d3826117a9565b9150819050919050565b7f457363726f773a206e6174697665207472616e73666572206661696c656400005f82015250565b5f611811601e8361140b565b915061181c826117dd565b602082019050919050565b5f6020820190508181035f83015261183e81611805565b9050919050565b5f6040820190506118585f83018561128b565b6118656020830184611233565b9392505050565b611875816113b0565b811461187f575f5ffd5b50565b5f815190506118908161186c565b92915050565b5f602082840312156118ab576118aa611327565b5b5f6118b884828501611882565b91505092915050565b7f457363726f773a204552433230207472616e73666572206661696c65640000005f82015250565b5f6118f5601d8361140b565b9150611900826118c1565b602082019050919050565b5f6020820190508181035f830152611922816118e9565b9050919050565b7f457363726f773a20736166657479206465706f7369742072657475726e2066615f8201527f696c656400000000000000000000000000000000000000000000000000000000602082015250565b5f61198360248361140b565b915061198e82611929565b604082019050919050565b5f6020820190508181035f8301526119b081611977565b9050919050565b7f457363726f773a2074696d656f757420686173207061737365640000000000005f82015250565b5f6119eb601a8361140b565b91506119f6826119b7565b602082019050919050565b5f6020820190508181035f830152611a18816119df565b9050919050565b7f457363726f773a206e617469766520726566756e64206661696c6564000000005f82015250565b5f611a53601c8361140b565b9150611a5e82611a1f565b602082019050919050565b5f6020820190508181035f830152611a8081611a47565b9050919050565b7f457363726f773a20455243323020726566756e64206661696c656400000000005f82015250565b5f611abb601b8361140b565b9150611ac682611a87565b602082019050919050565b5f6020820190508181035f830152611ae881611aaf565b9050919050565b7f457363726f773a20736166657479206465706f73697420726566756e642066615f8201527f696c656400000000000000000000000000000000000000000000000000000000602082015250565b5f611b4960248361140b565b9150611b5482611aef565b604082019050919050565b5f6020820190508181035f830152611b7681611b3d565b905091905056fea2646970667358221220fe289749047fadaf3765b86ac317324e3d617e3217ca273b78f0d7a44b1871b464736f6c634300081e0033","linkReferences":{}},"methodIdentifiers":{"amount()":"aa8c217c","cancelled()":"9a82a09a","getContractBalance()":"6f9fb98a","maker()":"50655d8c","publicCancel()":"7a3bae42","publicWithdraw(bytes32)":"56ea5f90","safetyDeposit()":"1732c69f","secretHash()":"d29e6803","taker()":"782b3602","timeout()":"70dea79a","tokenContract()":"55a373d6","withdraw(bytes32)":"8e19899e","withdrawn()":"c80ec522"},"id":2}