{"abi":[{"type":"constructor","inputs":[{"name":"_factory","type":"address","internalType":"address"}],"stateMutability":"nonpayable"},{"type":"function","name":"cancel","inputs":[{"name":"escrowAddress","type":"address","internalType":"address"}],"outputs":[],"stateMutability":"nonpayable"},{"type":"function","name":"createDstEscrow","inputs":[{"name":"maker","type":"address","internalType":"address"},{"name":"secretHash","type":"bytes32","internalType":"bytes32"},{"name":"timeout","type":"uint256","internalType":"uint256"},{"name":"tokenContract","type":"address","internalType":"address"},{"name":"amount","type":"uint256","internalType":"uint256"},{"name":"salt","type":"bytes32","internalType":"bytes32"}],"outputs":[],"stateMutability":"payable"},{"type":"function","name":"createSrcEscrow","inputs":[{"name":"taker","type":"address","internalType":"address"},{"name":"secretHash","type":"bytes32","internalType":"bytes32"},{"name":"timeout","type":"uint256","internalType":"uint256"},{"name":"tokenContract","type":"address","internalType":"address"},{"name":"amount","type":"uint256","internalType":"uint256"},{"name":"salt","type":"bytes32","internalType":"bytes32"}],"outputs":[],"stateMutability":"payable"},{"type":"function","name":"factory","inputs":[],"outputs":[{"name":"","type":"address","internalType":"contract EscrowFactory"}],"stateMutability":"view"},{"type":"function","name":"withdraw","inputs":[{"name":"escrowAddress","type":"address","internalType":"address"},{"name":"secret","type":"bytes32","internalType":"bytes32"}],"outputs":[],"stateMutability":"nonpayable"},{"type":"event","name":"EscrowCreated","inputs":[{"name":"salt","type":"bytes32","indexed":true,"internalType":"bytes32"},{"name":"escrowAddress","type":"address","indexed":true,"internalType":"address"},{"name":"isSrc","type":"bool","indexed":false,"internalType":"bool"}],"anonymous":false}],"bytecode":{"object":"0x60a060405234801561000f575f5ffd5b506040516109e73803806109e7833981810160405281019061003191906100c9565b8073ffffffffffffffffffffffffffffffffffffffff1660808173ffffffffffffffffffffffffffffffffffffffff1681525050506100f4565b5f5ffd5b5f73ffffffffffffffffffffffffffffffffffffffff82169050919050565b5f6100988261006f565b9050919050565b6100a88161008e565b81146100b2575f5ffd5b50565b5f815190506100c38161009f565b92915050565b5f602082840312156100de576100dd61006b565b5b5f6100eb848285016100b5565b91505092915050565b6080516108bf6101285f395f8181610101015281816101aa0152818161037101528181610395015261043e01526108bf5ff3fe608060405260043610610049575f3560e01c80631da2bede1461004d57806340e5e9aa146100695780634c33fe9414610091578063c45a0155146100b9578063e745df8d146100e3575b5f5ffd5b610067600480360381019061006291906105fe565b6100ff565b005b348015610074575f5ffd5b5061008f600480360381019061008a9190610687565b6102a7565b005b34801561009c575f5ffd5b506100b760048036038101906100b291906106c5565b610311565b005b3480156100c4575f5ffd5b506100cd61036f565b6040516100da919061074b565b60405180910390f35b6100fd60048036038101906100f891906105fe565b610393565b005b7f000000000000000000000000000000000000000000000000000000000000000073ffffffffffffffffffffffffffffffffffffffff1663e31b04df34883389898989896040518963ffffffff1660e01b81526004016101659796959493929190610791565b60206040518083038185885af1158015610181573d5f5f3e3d5ffd5b50505050506040513d601f19601f820116820180604052508101906101a69190610812565b505f7f000000000000000000000000000000000000000000000000000000000000000073ffffffffffffffffffffffffffffffffffffffff166311bd9046883389898989896040518863ffffffff1660e01b815260040161020d9796959493929190610791565b602060405180830381865afa158015610228573d5f5f3e3d5ffd5b505050506040513d601f19601f8201168201806040525081019061024c9190610812565b90508073ffffffffffffffffffffffffffffffffffffffff16827ffa721d10345cb85bf697cdede17802c517d490b5832f1b8188af01e7ad3a25d060016040516102969190610857565b60405180910390a350505050505050565b8173ffffffffffffffffffffffffffffffffffffffff16638e19899e826040518263ffffffff1660e01b81526004016102e09190610870565b5f604051808303815f87803b1580156102f7575f5ffd5b505af1158015610309573d5f5f3e3d5ffd5b505050505050565b8073ffffffffffffffffffffffffffffffffffffffff16637a3bae426040518163ffffffff1660e01b81526004015f604051808303815f87803b158015610356575f5ffd5b505af1158015610368573d5f5f3e3d5ffd5b5050505050565b7f000000000000000000000000000000000000000000000000000000000000000081565b7f000000000000000000000000000000000000000000000000000000000000000073ffffffffffffffffffffffffffffffffffffffff1663316a264134338989898989896040518963ffffffff1660e01b81526004016103f99796959493929190610791565b60206040518083038185885af1158015610415573d5f5f3e3d5ffd5b50505050506040513d601f19601f8201168201806040525081019061043a9190610812565b505f7f000000000000000000000000000000000000000000000000000000000000000073ffffffffffffffffffffffffffffffffffffffff1663eed5f711338989898989896040518863ffffffff1660e01b81526004016104a19796959493929190610791565b602060405180830381865afa1580156104bc573d5f5f3e3d5ffd5b505050506040513d601f19601f820116820180604052508101906104e09190610812565b90508073ffffffffffffffffffffffffffffffffffffffff16827ffa721d10345cb85bf697cdede17802c517d490b5832f1b8188af01e7ad3a25d05f6040516105299190610857565b60405180910390a350505050505050565b5f5ffd5b5f73ffffffffffffffffffffffffffffffffffffffff82169050919050565b5f6105678261053e565b9050919050565b6105778161055d565b8114610581575f5ffd5b50565b5f813590506105928161056e565b92915050565b5f819050919050565b6105aa81610598565b81146105b4575f5ffd5b50565b5f813590506105c5816105a1565b92915050565b5f819050919050565b6105dd816105cb565b81146105e7575f5ffd5b50565b5f813590506105f8816105d4565b92915050565b5f5f5f5f5f5f60c087890312156106185761061761053a565b5b5f61062589828a01610584565b965050602061063689828a016105b7565b955050604061064789828a016105ea565b945050606061065889828a01610584565b935050608061066989828a016105ea565b92505060a061067a89828a016105b7565b9150509295509295509295565b5f5f6040838503121561069d5761069c61053a565b5b5f6106aa85828601610584565b92505060206106bb858286016105b7565b9150509250929050565b5f602082840312156106da576106d961053a565b5b5f6106e784828501610584565b91505092915050565b5f819050919050565b5f61071361070e6107098461053e565b6106f0565b61053e565b9050919050565b5f610724826106f9565b9050919050565b5f6107358261071a565b9050919050565b6107458161072b565b82525050565b5f60208201905061075e5f83018461073c565b92915050565b61076d8161055d565b82525050565b61077c81610598565b82525050565b61078b816105cb565b82525050565b5f60e0820190506107a45f83018a610764565b6107b16020830189610764565b6107be6040830188610773565b6107cb6060830187610782565b6107d86080830186610764565b6107e560a0830185610782565b6107f260c0830184610773565b98975050505050505050565b5f8151905061080c8161056e565b92915050565b5f602082840312156108275761082661053a565b5b5f610834848285016107fe565b91505092915050565b5f8115159050919050565b6108518161083d565b82525050565b5f60208201905061086a5f830184610848565b92915050565b5f6020820190506108835f830184610773565b9291505056fea264697066735822122003cecaa66a59453c7b2a404d3fa085e5cdd74dc6b2a1f535a068f289ac4ee7ce64736f6c634300081e0033","linkReferences":{}},"methodIdentifiers":{"cancel(address)":"4c33fe94","createDstEscrow(address,bytes32,uint256,address,uint256,bytes32)":"e745df8d","createSrcEscrow(address,bytes32,uint256,address,uint256,bytes32)":"1da2bede","factory()":"c45a0155","withdraw(address,bytes32)":"40e5e9aa"},"id":1}