{"abi":[{"type":"constructor","inputs":[{"name":"_factory","type":"address","internalType":"contract EscrowFactory"},{"name":"_owner","type":"address","internalType":"address"}],"stateMutability":"nonpayable"},{"type":"receive","stateMutability":"payable"},{"type":"function","name":"arbitraryCalls","inputs":[{"name":"targets","type":"address[]","internalType":"address[]"},{"name":"arguments","type":"bytes[]","internalType":"bytes[]"}],"outputs":[],"stateMutability":"nonpayable"},{"type":"function","name":"cancelDst","inputs":[{"name":"dstEscrow","type":"address","internalType":"address payable"}],"outputs":[],"stateMutability":"nonpayable"},{"type":"function","name":"cancelSrc","inputs":[{"name":"srcEscrow","type":"address","internalType":"address payable"}],"outputs":[],"stateMutability":"nonpayable"},{"type":"function","name":"completeSwap","inputs":[{"name":"srcEscrow","type":"address","internalType":"address payable"},{"name":"dstEscrow","type":"address","internalType":"address payable"},{"name":"secret","type":"bytes32","internalType":"bytes32"}],"outputs":[],"stateMutability":"nonpayable"},{"type":"function","name":"deployDstEscrow","inputs":[{"name":"user","type":"address","internalType":"address"},{"name":"secretHash","type":"bytes32","internalType":"bytes32"},{"name":"timeout","type":"uint256","internalType":"uint256"},{"name":"tokenContract","type":"address","internalType":"address"},{"name":"amount","type":"uint256","internalType":"uint256"},{"name":"safetyDeposit","type":"uint256","internalType":"uint256"},{"name":"salt","type":"bytes32","internalType":"bytes32"}],"outputs":[{"name":"","type":"address","internalType":"address"}],"stateMutability":"payable"},{"type":"function","name":"deploySrcEscrow","inputs":[{"name":"user","type":"address","internalType":"address"},{"name":"secretHash","type":"bytes32","internalType":"bytes32"},{"name":"timeout","type":"uint256","internalType":"uint256"},{"name":"tokenContract","type":"address","internalType":"address"},{"name":"amount","type":"uint256","internalType":"uint256"},{"name":"safetyDeposit","type":"uint256","internalType":"uint256"},{"name":"salt","type":"bytes32","internalType":"bytes32"}],"outputs":[{"name":"","type":"address","internalType":"address"}],"stateMutability":"payable"},{"type":"function","name":"emergencyWithdraw","inputs":[{"name":"tokenContract","type":"address","internalType":"address"},{"name":"amount","type":"uint256","internalType":"uint256"}],"outputs":[],"stateMutability":"nonpayable"},{"type":"function","name":"escrowFactory","inputs":[],"outputs":[{"name":"","type":"address","internalType":"contract EscrowFactory"}],"stateMutability":"view"},{"type":"function","name":"getEscrowInfo","inputs":[{"name":"escrowAddress","type":"address","internalType":"address payable"}],"outputs":[{"name":"taker","type":"address","internalType":"address"},{"name":"maker","type":"address","internalType":"address"},{"name":"secretHash","type":"bytes32","internalType":"bytes32"},{"name":"timeout","type":"uint256","internalType":"uint256"},{"name":"tokenContract","type":"address","internalType":"address"},{"name":"amount","type":"uint256","internalType":"uint256"},{"name":"safetyDeposit","type":"uint256","internalType":"uint256"}],"stateMutability":"view"},{"type":"function","name":"getPredictedEscrowAddresses","inputs":[{"name":"user","type":"address","internalType":"address"},{"name":"secretHash","type":"bytes32","internalType":"bytes32"},{"name":"timeout","type":"uint256","internalType":"uint256"},{"name":"srcToken","type":"address","internalType":"address"},{"name":"srcAmount","type":"uint256","internalType":"uint256"},{"name":"srcSafetyDeposit","type":"uint256","internalType":"uint256"},{"name":"dstToken","type":"address","internalType":"address"},{"name":"dstAmount","type":"uint256","internalType":"uint256"},{"name":"dstSafetyDeposit","type":"uint256","internalType":"uint256"},{"name":"salt","type":"bytes32","internalType":"bytes32"}],"outputs":[{"name":"srcEscrow","type":"address","internalType":"address"},{"name":"dstEscrow","type":"address","internalType":"address"}],"stateMutability":"view"},{"type":"function","name":"isTimeoutPassed","inputs":[{"name":"escrowAddress","type":"address","internalType":"address payable"}],"outputs":[{"name":"","type":"bool","internalType":"bool"}],"stateMutability":"view"},{"type":"function","name":"owner","inputs":[],"outputs":[{"name":"","type":"address","internalType":"address"}],"stateMutability":"view"},{"type":"function","name":"publicWithdraw","inputs":[{"name":"escrowAddress","type":"address","internalType":"address payable"},{"name":"secret","type":"bytes32","internalType":"bytes32"}],"outputs":[],"stateMutability":"nonpayable"},{"type":"function","name":"tokenAllowances","inputs":[{"name":"","type":"address","internalType":"address"},{"name":"","type":"address","internalType":"address"}],"outputs":[{"name":"","type":"uint256","internalType":"uint256"}],"stateMutability":"view"},{"type":"function","name":"transferOwnership","inputs":[{"name":"newOwner","type":"address","internalType":"address"}],"outputs":[],"stateMutability":"nonpayable"},{"type":"function","name":"verifySecret","inputs":[{"name":"secret","type":"bytes32","internalType":"bytes32"},{"name":"secretHash","type":"bytes32","internalType":"bytes32"}],"outputs":[{"name":"","type":"bool","internalType":"bool"}],"stateMutability":"pure"},{"type":"function","name":"withdrawFromSrc","inputs":[{"name":"srcEscrow","type":"address","internalType":"address payable"},{"name":"secret","type":"bytes32","internalType":"bytes32"}],"outputs":[],"stateMutability":"nonpayable"},{"type":"event","name":"DstEscrowDeployed","inputs":[{"name":"escrow","type":"address","indexed":true,"internalType":"address"},{"name":"secretHash","type":"bytes32","indexed":true,"internalType":"bytes32"},{"name":"user","type":"address","indexed":true,"internalType":"address"}],"anonymous":false},{"type":"event","name":"OwnershipTransferred","inputs":[{"name":"previousOwner","type":"address","indexed":true,"internalType":"address"},{"name":"newOwner","type":"address","indexed":true,"internalType":"address"}],"anonymous":false},{"type":"event","name":"SrcEscrowDeployed","inputs":[{"name":"escrow","type":"address","indexed":true,"internalType":"address"},{"name":"secretHash","type":"bytes32","indexed":true,"internalType":"bytes32"},{"name":"user","type":"address","indexed":true,"internalType":"address"}],"anonymous":false},{"type":"event","name":"SwapCancelled","inputs":[{"name":"secretHash","type":"bytes32","indexed":true,"internalType":"bytes32"},{"name":"escrow","type":"address","indexed":false,"internalType":"address"}],"anonymous":false},{"type":"event","name":"SwapCompleted","inputs":[{"name":"secretHash","type":"bytes32","indexed":true,"internalType":"bytes32"},{"name":"secret","type":"bytes32","indexed":false,"internalType":"bytes32"},{"name":"srcEscrow","type":"address","indexed":false,"internalType":"address"},{"name":"dstEscrow","type":"address","indexed":false,"internalType":"address"}],"anonymous":false}],"bytecode":{"object":"0x60a060405234801561000f575f5ffd5b50604051612c75380380612c758339818101604052810190610031919061019e565b8173ffffffffffffffffffffffffffffffffffffffff1660808173ffffffffffffffffffffffffffffffffffffffff1681525050805f5f6101000a81548173ffffffffffffffffffffffffffffffffffffffff021916908373ffffffffffffffffffffffffffffffffffffffff1602179055508073ffffffffffffffffffffffffffffffffffffffff165f73ffffffffffffffffffffffffffffffffffffffff167f8be0079c531659141344cd1fd0a4f28419497f9722a3daafe3b4186f6b6457e060405160405180910390a350506101dc565b5f5ffd5b5f73ffffffffffffffffffffffffffffffffffffffff82169050919050565b5f61013282610109565b9050919050565b5f61014382610128565b9050919050565b61015381610139565b811461015d575f5ffd5b50565b5f8151905061016e8161014a565b92915050565b61017d81610128565b8114610187575f5ffd5b50565b5f8151905061019881610174565b92915050565b5f5f604083850312156101b4576101b3610105565b5b5f6101c185828601610160565b92505060206101d28582860161018a565b9150509250929050565b608051612a5e6102175f395f8181610cf601528181610d9e0152818161105e015281816110e001528181611427015261153c0152612a5e5ff3fe608060405260043610610101575f3560e01c80638da5cb5b11610094578063bdd1daaa11610063578063bdd1daaa14610355578063c5171bdf1461037f578063d68bda7c146103a7578063eee06a42146103e3578063f2fde38b1461040b57610108565b80638da5cb5b146102a35780638ddecceb146102cd57806395ccea67146102fd578063a7d6feb41461032557610108565b80633662da3c116100d05780633662da3c146101d4578063502a8a95146101fc578063552386be1461023e578063790c48c91461027b57610108565b806311758b141461010c5780631f3177ba146101485780632e6a954e14610170578063344fde74146101ac57610108565b3661010857005b5f5ffd5b348015610117575f5ffd5b50610132600480360381019061012d9190611b8f565b610433565b60405161013f9190611be7565b60405180910390f35b348015610153575f5ffd5b5061016e60048036038101906101699190611cb6565b6104ab565b005b34801561017b575f5ffd5b5061019660048036038101906101919190611d8e565b6106af565b6040516101a39190611be7565b60405180910390f35b3480156101b7575f5ffd5b506101d260048036038101906101cd9190611d8e565b610726565b005b3480156101df575f5ffd5b506101fa60048036038101906101f59190611db9565b61082d565b005b348015610207575f5ffd5b50610222600480360381019061021d9190611d8e565b6109d2565b6040516102359796959493929190611e3e565b60405180910390f35b348015610249575f5ffd5b50610264600480360381019061025f9190611eff565b610cf2565b604051610272929190611fd8565b60405180910390f35b348015610286575f5ffd5b506102a1600480360381019061029c9190611d8e565b610e53565b005b3480156102ae575f5ffd5b506102b7610f5a565b6040516102c49190611fff565b60405180910390f35b6102e760048036038101906102e29190612018565b610f7e565b6040516102f49190611fff565b60405180910390f35b348015610308575f5ffd5b50610323600480360381019061031e91906120b5565b6111f3565b005b61033f600480360381019061033a9190612018565b611423565b60405161034c9190611fff565b60405180910390f35b348015610360575f5ffd5b5061036961153a565b604051610376919061214e565b60405180910390f35b34801561038a575f5ffd5b506103a560048036038101906103a09190612167565b61155e565b005b3480156103b2575f5ffd5b506103cd60048036038101906103c891906121b7565b611865565b6040516103da91906121f5565b60405180910390f35b3480156103ee575f5ffd5b5061040960048036038101906104049190611db9565b611885565b005b348015610416575f5ffd5b50610431600480360381019061042c919061220e565b61199c565b005b5f816002846040516020016104489190612259565b60405160208183030381529060405260405161046491906122c5565b602060405180830381855afa15801561047f573d5f5f3e3d5ffd5b5050506040513d601f19601f820116820180604052508101906104a291906122ef565b14905092915050565b5f5f9054906101000a900473ffffffffffffffffffffffffffffffffffffffff1673ffffffffffffffffffffffffffffffffffffffff163373ffffffffffffffffffffffffffffffffffffffff1614610539576040517f08c379a00000000000000000000000000000000000000000000000000000000081526004016105309061239a565b60405180910390fd5b818190508484905014610581576040517f08c379a000000000000000000000000000000000000000000000000000000000815260040161057890612402565b60405180910390fd5b5f5f90505b848490508110156106a8575f5f8686848181106105a6576105a5612420565b5b90506020020160208101906105bb919061220e565b73ffffffffffffffffffffffffffffffffffffffff168585858181106105e4576105e3612420565b5b90506020028101906105f69190612459565b6040516106049291906124ed565b5f604051808303815f865af19150503d805f811461063d576040519150601f19603f3d011682016040523d82523d5f602084013e610642565b606091505b509150915081610699575f8151111561065e5780518082602001fd5b6040517f08c379a00000000000000000000000000000000000000000000000000000000081526004016106909061254f565b60405180910390fd5b50508080600101915050610586565b5050505050565b5f8173ffffffffffffffffffffffffffffffffffffffff166370dea79a6040518163ffffffff1660e01b8152600401602060405180830381865afa1580156106f9573d5f5f3e3d5ffd5b505050506040513d601f19601f8201168201806040525081019061071d9190612581565b42119050919050565b5f8190508073ffffffffffffffffffffffffffffffffffffffff16637a3bae426040518163ffffffff1660e01b81526004015f604051808303815f87803b15801561076f575f5ffd5b505af1158015610781573d5f5f3e3d5ffd5b505050508073ffffffffffffffffffffffffffffffffffffffff1663d29e68036040518163ffffffff1660e01b8152600401602060405180830381865afa1580156107ce573d5f5f3e3d5ffd5b505050506040513d601f19601f820116820180604052508101906107f291906122ef565b7fd7aaa11477f44f7f00ac9dfc4615d28d5db3607254234c569f459afa01ca1a878360405161082191906125cc565b60405180910390a25050565b5f5f9054906101000a900473ffffffffffffffffffffffffffffffffffffffff1673ffffffffffffffffffffffffffffffffffffffff163373ffffffffffffffffffffffffffffffffffffffff16146108bb576040517f08c379a00000000000000000000000000000000000000000000000000000000081526004016108b29061239a565b60405180910390fd5b5f8290508073ffffffffffffffffffffffffffffffffffffffff16638e19899e836040518263ffffffff1660e01b81526004016108f891906125e5565b5f604051808303815f87803b15801561090f575f5ffd5b505af1158015610921573d5f5f3e3d5ffd5b505050508073ffffffffffffffffffffffffffffffffffffffff1663d29e68036040518163ffffffff1660e01b8152600401602060405180830381865afa15801561096e573d5f5f3e3d5ffd5b505050506040513d601f19601f8201168201806040525081019061099291906122ef565b7f068ef2ebe7d00acc1d579bbd74344861ebd651986caa5f2946de93c9db31652983855f6040516109c5939291906125fe565b60405180910390a2505050565b5f5f5f5f5f5f5f5f8890508073ffffffffffffffffffffffffffffffffffffffff1663782b36026040518163ffffffff1660e01b8152600401602060405180830381865afa158015610a26573d5f5f3e3d5ffd5b505050506040513d601f19601f82011682018060405250810190610a4a9190612647565b8173ffffffffffffffffffffffffffffffffffffffff166350655d8c6040518163ffffffff1660e01b8152600401602060405180830381865afa158015610a93573d5f5f3e3d5ffd5b505050506040513d601f19601f82011682018060405250810190610ab79190612647565b8273ffffffffffffffffffffffffffffffffffffffff1663d29e68036040518163ffffffff1660e01b8152600401602060405180830381865afa158015610b00573d5f5f3e3d5ffd5b505050506040513d601f19601f82011682018060405250810190610b2491906122ef565b8373ffffffffffffffffffffffffffffffffffffffff166370dea79a6040518163ffffffff1660e01b8152600401602060405180830381865afa158015610b6d573d5f5f3e3d5ffd5b505050506040513d601f19601f82011682018060405250810190610b919190612581565b8473ffffffffffffffffffffffffffffffffffffffff166355a373d66040518163ffffffff1660e01b8152600401602060405180830381865afa158015610bda573d5f5f3e3d5ffd5b505050506040513d601f19601f82011682018060405250810190610bfe91906126ad565b8573ffffffffffffffffffffffffffffffffffffffff1663aa8c217c6040518163ffffffff1660e01b8152600401602060405180830381865afa158015610c47573d5f5f3e3d5ffd5b505050506040513d601f19601f82011682018060405250810190610c6b9190612581565b8673ffffffffffffffffffffffffffffffffffffffff16631732c69f6040518163ffffffff1660e01b8152600401602060405180830381865afa158015610cb4573d5f5f3e3d5ffd5b505050506040513d601f19601f82011682018060405250810190610cd89190612581565b975097509750975097509750975050919395979092949650565b5f5f7f000000000000000000000000000000000000000000000000000000000000000073ffffffffffffffffffffffffffffffffffffffff1663ff2e9a54308e8e8e8e8e8e8b6040518963ffffffff1660e01b8152600401610d5b9897969594939291906126d8565b602060405180830381865afa158015610d76573d5f5f3e3d5ffd5b505050506040513d601f19601f82011682018060405250810190610d9a9190612647565b91507f000000000000000000000000000000000000000000000000000000000000000073ffffffffffffffffffffffffffffffffffffffff166330a634328d308e8e8b8b8b8b6040518963ffffffff1660e01b8152600401610e039897969594939291906126d8565b602060405180830381865afa158015610e1e573d5f5f3e3d5ffd5b505050506040513d601f19601f82011682018060405250810190610e429190612647565b90509a509a98505050505050505050565b5f8190508073ffffffffffffffffffffffffffffffffffffffff16637a3bae426040518163ffffffff1660e01b81526004015f604051808303815f87803b158015610e9c575f5ffd5b505af1158015610eae573d5f5f3e3d5ffd5b505050508073ffffffffffffffffffffffffffffffffffffffff1663d29e68036040518163ffffffff1660e01b8152600401602060405180830381865afa158015610efb573d5f5f3e3d5ffd5b505050506040513d601f19601f82011682018060405250810190610f1f91906122ef565b7fd7aaa11477f44f7f00ac9dfc4615d28d5db3607254234c569f459afa01ca1a8783604051610f4e91906125cc565b60405180910390a25050565b5f5f9054906101000a900473ffffffffffffffffffffffffffffffffffffffff1681565b5f5f5f9054906101000a900473ffffffffffffffffffffffffffffffffffffffff1673ffffffffffffffffffffffffffffffffffffffff163373ffffffffffffffffffffffffffffffffffffffff161461100d576040517f08c379a00000000000000000000000000000000000000000000000000000000081526004016110049061239a565b60405180910390fd5b5f73ffffffffffffffffffffffffffffffffffffffff168573ffffffffffffffffffffffffffffffffffffffff16146110dd578473ffffffffffffffffffffffffffffffffffffffff1663095ea7b37f0000000000000000000000000000000000000000000000000000000000000000866040518363ffffffff1660e01b815260040161109b929190612754565b6020604051808303815f875af11580156110b7573d5f5f3e3d5ffd5b505050506040513d601f19601f820116820180604052508101906110db91906127a5565b505b5f7f000000000000000000000000000000000000000000000000000000000000000073ffffffffffffffffffffffffffffffffffffffff1663809d9b9b348b308c8c8c8c8c8c6040518a63ffffffff1660e01b81526004016111469897969594939291906126d8565b60206040518083038185885af1158015611162573d5f5f3e3d5ffd5b50505050506040513d601f19601f820116820180604052508101906111879190612647565b90508873ffffffffffffffffffffffffffffffffffffffff16888273ffffffffffffffffffffffffffffffffffffffff167f23550e95f327f4037264071b75a93b01c19b9e560b9901e04609800fb115647860405160405180910390a480915050979650505050505050565b5f5f9054906101000a900473ffffffffffffffffffffffffffffffffffffffff1673ffffffffffffffffffffffffffffffffffffffff163373ffffffffffffffffffffffffffffffffffffffff1614611281576040517f08c379a00000000000000000000000000000000000000000000000000000000081526004016112789061239a565b60405180910390fd5b5f73ffffffffffffffffffffffffffffffffffffffff168273ffffffffffffffffffffffffffffffffffffffff1603611382575f5f5f9054906101000a900473ffffffffffffffffffffffffffffffffffffffff1673ffffffffffffffffffffffffffffffffffffffff16826040516112f9906127f3565b5f6040518083038185875af1925050503d805f8114611333576040519150601f19603f3d011682016040523d82523d5f602084013e611338565b606091505b505090508061137c576040517f08c379a000000000000000000000000000000000000000000000000000000000815260040161137390612877565b60405180910390fd5b5061141f565b8173ffffffffffffffffffffffffffffffffffffffff1663a9059cbb5f5f9054906101000a900473ffffffffffffffffffffffffffffffffffffffff16836040518363ffffffff1660e01b81526004016113dd929190612754565b6020604051808303815f875af11580156113f9573d5f5f3e3d5ffd5b505050506040513d601f19601f8201168201806040525081019061141d91906127a5565b505b5050565b5f5f7f000000000000000000000000000000000000000000000000000000000000000073ffffffffffffffffffffffffffffffffffffffff16636e823adb34308c8c8c8c8c8c8c6040518a63ffffffff1660e01b815260040161148d9897969594939291906126d8565b60206040518083038185885af11580156114a9573d5f5f3e3d5ffd5b50505050506040513d601f19601f820116820180604052508101906114ce9190612647565b90508873ffffffffffffffffffffffffffffffffffffffff16888273ffffffffffffffffffffffffffffffffffffffff167fd21585bf49b3c232151fc46d47aae6a78cbf7d6bdbc6520328c7340cf3ae1edf60405160405180910390a480915050979650505050505050565b7f000000000000000000000000000000000000000000000000000000000000000081565b5f5f9054906101000a900473ffffffffffffffffffffffffffffffffffffffff1673ffffffffffffffffffffffffffffffffffffffff163373ffffffffffffffffffffffffffffffffffffffff16146115ec576040517f08c379a00000000000000000000000000000000000000000000000000000000081526004016115e39061239a565b60405180910390fd5b5f8373ffffffffffffffffffffffffffffffffffffffff1663d29e68036040518163ffffffff1660e01b8152600401602060405180830381865afa158015611636573d5f5f3e3d5ffd5b505050506040513d601f19601f8201168201806040525081019061165a91906122ef565b90505f8373ffffffffffffffffffffffffffffffffffffffff1663d29e68036040518163ffffffff1660e01b8152600401602060405180830381865afa1580156116a6573d5f5f3e3d5ffd5b505050506040513d601f19601f820116820180604052508101906116ca91906122ef565b905080821461170e576040517f08c379a0000000000000000000000000000000000000000000000000000000008152600401611705906128df565b60405180910390fd5b816002846040516020016117229190612259565b60405160208183030381529060405260405161173e91906122c5565b602060405180830381855afa158015611759573d5f5f3e3d5ffd5b5050506040513d601f19601f8201168201806040525081019061177c91906122ef565b146117bc576040517f08c379a00000000000000000000000000000000000000000000000000000000081526004016117b390612947565b60405180910390fd5b8473ffffffffffffffffffffffffffffffffffffffff16638e19899e846040518263ffffffff1660e01b81526004016117f591906125e5565b5f604051808303815f87803b15801561180c575f5ffd5b505af115801561181e573d5f5f3e3d5ffd5b50505050817f068ef2ebe7d00acc1d579bbd74344861ebd651986caa5f2946de93c9db31652984878760405161185693929190612965565b60405180910390a25050505050565b6001602052815f5260405f20602052805f5260405f205f91509150505481565b5f8290508073ffffffffffffffffffffffffffffffffffffffff166356ea5f90836040518263ffffffff1660e01b81526004016118c291906125e5565b5f604051808303815f87803b1580156118d9575f5ffd5b505af11580156118eb573d5f5f3e3d5ffd5b505050508073ffffffffffffffffffffffffffffffffffffffff1663d29e68036040518163ffffffff1660e01b8152600401602060405180830381865afa158015611938573d5f5f3e3d5ffd5b505050506040513d601f19601f8201168201806040525081019061195c91906122ef565b7f068ef2ebe7d00acc1d579bbd74344861ebd651986caa5f2946de93c9db31652983855f60405161198f939291906125fe565b60405180910390a2505050565b5f5f9054906101000a900473ffffffffffffffffffffffffffffffffffffffff1673ffffffffffffffffffffffffffffffffffffffff163373ffffffffffffffffffffffffffffffffffffffff1614611a2a576040517f08c379a0000000000000000000000000000000000000000000000000000000008152600401611a219061239a565b60405180910390fd5b5f73ffffffffffffffffffffffffffffffffffffffff168173ffffffffffffffffffffffffffffffffffffffff1603611a98576040517f08c379a0000000000000000000000000000000000000000000000000000000008152600401611a8f90612a0a565b60405180910390fd5b8073ffffffffffffffffffffffffffffffffffffffff165f5f9054906101000a900473ffffffffffffffffffffffffffffffffffffffff1673ffffffffffffffffffffffffffffffffffffffff167f8be0079c531659141344cd1fd0a4f28419497f9722a3daafe3b4186f6b6457e060405160405180910390a3805f5f6101000a81548173ffffffffffffffffffffffffffffffffffffffff021916908373ffffffffffffffffffffffffffffffffffffffff16021790555050565b5f5ffd5b5f5ffd5b5f819050919050565b611b6e81611b5c565b8114611b78575f5ffd5b50565b5f81359050611b8981611b65565b92915050565b5f5f60408385031215611ba557611ba4611b54565b5b5f611bb285828601611b7b565b9250506020611bc385828601611b7b565b9150509250929050565b5f8115159050919050565b611be181611bcd565b82525050565b5f602082019050611bfa5f830184611bd8565b92915050565b5f5ffd5b5f5ffd5b5f5ffd5b5f5f83601f840112611c2157611c20611c00565b5b8235905067ffffffffffffffff811115611c3e57611c3d611c04565b5b602083019150836020820283011115611c5a57611c59611c08565b5b9250929050565b5f5f83601f840112611c7657611c75611c00565b5b8235905067ffffffffffffffff811115611c9357611c92611c04565b5b602083019150836020820283011115611caf57611cae611c08565b5b9250929050565b5f5f5f5f60408587031215611cce57611ccd611b54565b5b5f85013567ffffffffffffffff811115611ceb57611cea611b58565b5b611cf787828801611c0c565b9450945050602085013567ffffffffffffffff811115611d1a57611d19611b58565b5b611d2687828801611c61565b925092505092959194509250565b5f73ffffffffffffffffffffffffffffffffffffffff82169050919050565b5f611d5d82611d34565b9050919050565b611d6d81611d53565b8114611d77575f5ffd5b50565b5f81359050611d8881611d64565b92915050565b5f60208284031215611da357611da2611b54565b5b5f611db084828501611d7a565b91505092915050565b5f5f60408385031215611dcf57611dce611b54565b5b5f611ddc85828601611d7a565b9250506020611ded85828601611b7b565b9150509250929050565b5f611e0182611d34565b9050919050565b611e1181611df7565b82525050565b611e2081611b5c565b82525050565b5f819050919050565b611e3881611e26565b82525050565b5f60e082019050611e515f83018a611e08565b611e5e6020830189611e08565b611e6b6040830188611e17565b611e786060830187611e2f565b611e856080830186611e08565b611e9260a0830185611e2f565b611e9f60c0830184611e2f565b98975050505050505050565b611eb481611df7565b8114611ebe575f5ffd5b50565b5f81359050611ecf81611eab565b92915050565b611ede81611e26565b8114611ee8575f5ffd5b50565b5f81359050611ef981611ed5565b92915050565b5f5f5f5f5f5f5f5f5f5f6101408b8d031215611f1e57611f1d611b54565b5b5f611f2b8d828e01611ec1565b9a50506020611f3c8d828e01611b7b565b9950506040611f4d8d828e01611eeb565b9850506060611f5e8d828e01611ec1565b9750506080611f6f8d828e01611eeb565b96505060a0611f808d828e01611eeb565b95505060c0611f918d828e01611ec1565b94505060e0611fa28d828e01611eeb565b935050610100611fb48d828e01611eeb565b925050610120611fc68d828e01611b7b565b9150509295989b9194979a5092959850565b5f604082019050611feb5f830185611e08565b611ff86020830184611e08565b9392505050565b5f6020820190506120125f830184611e08565b92915050565b5f5f5f5f5f5f5f60e0888a03121561203357612032611b54565b5b5f6120408a828b01611ec1565b97505060206120518a828b01611b7b565b96505060406120628a828b01611eeb565b95505060606120738a828b01611ec1565b94505060806120848a828b01611eeb565b93505060a06120958a828b01611eeb565b92505060c06120a68a828b01611b7b565b91505092959891949750929550565b5f5f604083850312156120cb576120ca611b54565b5b5f6120d885828601611ec1565b92505060206120e985828601611eeb565b9150509250929050565b5f819050919050565b5f61211661211161210c84611d34565b6120f3565b611d34565b9050919050565b5f612127826120fc565b9050919050565b5f6121388261211d565b9050919050565b6121488161212e565b82525050565b5f6020820190506121615f83018461213f565b92915050565b5f5f5f6060848603121561217e5761217d611b54565b5b5f61218b86828701611d7a565b935050602061219c86828701611d7a565b92505060406121ad86828701611b7b565b9150509250925092565b5f5f604083850312156121cd576121cc611b54565b5b5f6121da85828601611ec1565b92505060206121eb85828601611ec1565b9150509250929050565b5f6020820190506122085f830184611e2f565b92915050565b5f6020828403121561222357612222611b54565b5b5f61223084828501611ec1565b91505092915050565b5f819050919050565b61225361224e82611b5c565b612239565b82525050565b5f6122648284612242565b60208201915081905092915050565b5f81519050919050565b5f81905092915050565b8281835e5f83830152505050565b5f61229f82612273565b6122a9818561227d565b93506122b9818560208601612287565b80840191505092915050565b5f6122d08284612295565b915081905092915050565b5f815190506122e981611b65565b92915050565b5f6020828403121561230457612303611b54565b5b5f612311848285016122db565b91505092915050565b5f82825260208201905092915050565b7f5265736f6c7665723a2063616c6c6572206973206e6f7420746865206f776e655f8201527f7200000000000000000000000000000000000000000000000000000000000000602082015250565b5f61238460218361231a565b915061238f8261232a565b604082019050919050565b5f6020820190508181035f8301526123b181612378565b9050919050565b7f5265736f6c7665723a206c656e677468206d69736d61746368000000000000005f82015250565b5f6123ec60198361231a565b91506123f7826123b8565b602082019050919050565b5f6020820190508181035f830152612419816123e0565b9050919050565b7f4e487b71000000000000000000000000000000000000000000000000000000005f52603260045260245ffd5b5f5ffd5b5f5ffd5b5f5ffd5b5f5f833560016020038436030381126124755761247461244d565b5b80840192508235915067ffffffffffffffff82111561249757612496612451565b5b6020830192506001820236038313156124b3576124b2612455565b5b509250929050565b828183375f83830152505050565b5f6124d4838561227d565b93506124e18385846124bb565b82840190509392505050565b5f6124f98284866124c9565b91508190509392505050565b7f5265736f6c7665723a2063616c6c206661696c656400000000000000000000005f82015250565b5f61253960158361231a565b915061254482612505565b602082019050919050565b5f6020820190508181035f8301526125668161252d565b9050919050565b5f8151905061257b81611ed5565b92915050565b5f6020828403121561259657612595611b54565b5b5f6125a38482850161256d565b91505092915050565b5f6125b68261211d565b9050919050565b6125c6816125ac565b82525050565b5f6020820190506125df5f8301846125bd565b92915050565b5f6020820190506125f85f830184611e17565b92915050565b5f6060820190506126115f830186611e17565b61261e60208301856125bd565b61262b6040830184611e08565b949350505050565b5f8151905061264181611eab565b92915050565b5f6020828403121561265c5761265b611b54565b5b5f61266984828501612633565b91505092915050565b5f61267c82611df7565b9050919050565b61268c81612672565b8114612696575f5ffd5b50565b5f815190506126a781612683565b92915050565b5f602082840312156126c2576126c1611b54565b5b5f6126cf84828501612699565b91505092915050565b5f610100820190506126ec5f83018b611e08565b6126f9602083018a611e08565b6127066040830189611e17565b6127136060830188611e2f565b6127206080830187611e08565b61272d60a0830186611e2f565b61273a60c0830185611e2f565b61274760e0830184611e17565b9998505050505050505050565b5f6040820190506127675f830185611e08565b6127746020830184611e2f565b9392505050565b61278481611bcd565b811461278e575f5ffd5b50565b5f8151905061279f8161277b565b92915050565b5f602082840312156127ba576127b9611b54565b5b5f6127c784828501612791565b91505092915050565b50565b5f6127de5f8361227d565b91506127e9826127d0565b5f82019050919050565b5f6127fd826127d3565b9150819050919050565b7f5265736f6c7665723a206e6174697665207769746864726177616c206661696c5f8201527f6564000000000000000000000000000000000000000000000000000000000000602082015250565b5f61286160228361231a565b915061286c82612807565b604082019050919050565b5f6020820190508181035f83015261288e81612855565b9050919050565b7f5265736f6c7665723a207365637265742068617368206d69736d6174636800005f82015250565b5f6128c9601e8361231a565b91506128d482612895565b602082019050919050565b5f6020820190508181035f8301526128f6816128bd565b9050919050565b7f5265736f6c7665723a20696e76616c69642073656372657400000000000000005f82015250565b5f61293160188361231a565b915061293c826128fd565b602082019050919050565b5f6020820190508181035f83015261295e81612925565b9050919050565b5f6060820190506129785f830186611e17565b61298560208301856125bd565b61299260408301846125bd565b949350505050565b7f5265736f6c7665723a206e6577206f776e657220697320746865207a65726f205f8201527f6164647265737300000000000000000000000000000000000000000000000000602082015250565b5f6129f460278361231a565b91506129ff8261299a565b604082019050919050565b5f6020820190508181035f830152612a21816129e8565b905091905056fea2646970667358221220df9afbadd4f986cabe98eda5b82637a48e2aa0bbb5389ea943df0a1ed284086a64736f6c634300081e0033","linkReferences":{}},"methodIdentifiers":{"arbitraryCalls(address[],bytes[])":"1f3177ba","cancelDst(address)":"344fde74","cancelSrc(address)":"790c48c9","completeSwap(address,address,bytes32)":"c5171bdf","deployDstEscrow(address,bytes32,uint256,address,uint256,uint256,bytes32)":"8ddecceb","deploySrcEscrow(address,bytes32,uint256,address,uint256,uint256,bytes32)":"a7d6feb4","emergencyWithdraw(address,uint256)":"95ccea67","escrowFactory()":"bdd1daaa","getEscrowInfo(address)":"502a8a95","getPredictedEscrowAddresses(address,bytes32,uint256,address,uint256,uint256,address,uint256,uint256,bytes32)":"552386be","isTimeoutPassed(address)":"2e6a954e","owner()":"8da5cb5b","publicWithdraw(address,bytes32)":"eee06a42","tokenAllowances(address,address)":"d68bda7c","transferOwnership(address)":"f2fde38b","verifySecret(bytes32,bytes32)":"11758b14","withdrawFromSrc(address,bytes32)":"3662da3c"},"id":24}