{"abi":[{"type":"constructor","inputs":[{"name":"_factory","type":"address","internalType":"contract EscrowFactory"},{"name":"_owner","type":"address","internalType":"address"}],"stateMutability":"nonpayable"},{"type":"receive","stateMutability":"payable"},{"type":"function","name":"arbitraryCalls","inputs":[{"name":"targets","type":"address[]","internalType":"address[]"},{"name":"arguments","type":"bytes[]","internalType":"bytes[]"}],"outputs":[],"stateMutability":"nonpayable"},{"type":"function","name":"cancelDst","inputs":[{"name":"escrowAddress","type":"address","internalType":"address payable"}],"outputs":[],"stateMutability":"nonpayable"},{"type":"function","name":"cancelSrc","inputs":[{"name":"escrowAddress","type":"address","internalType":"address payable"}],"outputs":[],"stateMutability":"nonpayable"},{"type":"function","name":"deployDstEscrow","inputs":[{"name":"taker","type":"address","internalType":"address"},{"name":"maker","type":"address","internalType":"address"},{"name":"secretHash","type":"bytes32","internalType":"bytes32"},{"name":"timeout","type":"uint256","internalType":"uint256"},{"name":"tokenContract","type":"address","internalType":"address"},{"name":"amount","type":"uint256","internalType":"uint256"},{"name":"salt","type":"bytes32","internalType":"bytes32"}],"outputs":[{"name":"","type":"address","internalType":"address"}],"stateMutability":"payable"},{"type":"function","name":"deploySrcEscrow","inputs":[{"name":"taker","type":"address","internalType":"address"},{"name":"maker","type":"address","internalType":"address"},{"name":"secretHash","type":"bytes32","internalType":"bytes32"},{"name":"timeout","type":"uint256","internalType":"uint256"},{"name":"tokenContract","type":"address","internalType":"address"},{"name":"amount","type":"uint256","internalType":"uint256"},{"name":"salt","type":"bytes32","internalType":"bytes32"}],"outputs":[{"name":"","type":"address","internalType":"address"}],"stateMutability":"payable"},{"type":"function","name":"emergencyWithdraw","inputs":[{"name":"tokenContract","type":"address","internalType":"address"},{"name":"amount","type":"uint256","internalType":"uint256"}],"outputs":[],"stateMutability":"nonpayable"},{"type":"function","name":"escrowFactory","inputs":[],"outputs":[{"name":"","type":"address","internalType":"contract EscrowFactory"}],"stateMutability":"view"},{"type":"function","name":"getEscrowInfo","inputs":[{"name":"escrowAddress","type":"address","internalType":"address payable"}],"outputs":[{"name":"taker","type":"address","internalType":"address"},{"name":"maker","type":"address","internalType":"address"},{"name":"secretHash","type":"bytes32","internalType":"bytes32"},{"name":"timeout","type":"uint256","internalType":"uint256"},{"name":"tokenContract","type":"address","internalType":"address"},{"name":"amount","type":"uint256","internalType":"uint256"}],"stateMutability":"view"},{"type":"function","name":"isTimeoutPassed","inputs":[{"name":"escrowAddress","type":"address","internalType":"address payable"}],"outputs":[{"name":"","type":"bool","internalType":"bool"}],"stateMutability":"view"},{"type":"function","name":"owner","inputs":[],"outputs":[{"name":"","type":"address","internalType":"address"}],"stateMutability":"view"},{"type":"function","name":"publicWithdraw","inputs":[{"name":"escrowAddress","type":"address","internalType":"address payable"},{"name":"secret","type":"bytes32","internalType":"bytes32"}],"outputs":[],"stateMutability":"nonpayable"},{"type":"function","name":"transferOwnership","inputs":[{"name":"newOwner","type":"address","internalType":"address"}],"outputs":[],"stateMutability":"nonpayable"},{"type":"function","name":"verifySecret","inputs":[{"name":"secret","type":"bytes32","internalType":"bytes32"},{"name":"secretHash","type":"bytes32","internalType":"bytes32"}],"outputs":[{"name":"","type":"bool","internalType":"bool"}],"stateMutability":"pure"},{"type":"function","name":"withdrawFromDst","inputs":[{"name":"escrowAddress","type":"address","internalType":"address payable"},{"name":"secret","type":"bytes32","internalType":"bytes32"}],"outputs":[],"stateMutability":"nonpayable"},{"type":"function","name":"withdrawFromSrc","inputs":[{"name":"escrowAddress","type":"address","internalType":"address payable"},{"name":"secret","type":"bytes32","internalType":"bytes32"}],"outputs":[],"stateMutability":"nonpayable"},{"type":"event","name":"DstEscrowDeployed","inputs":[{"name":"escrow","type":"address","indexed":true,"internalType":"address"},{"name":"secretHash","type":"bytes32","indexed":true,"internalType":"bytes32"}],"anonymous":false},{"type":"event","name":"OwnershipTransferred","inputs":[{"name":"previousOwner","type":"address","indexed":true,"internalType":"address"},{"name":"newOwner","type":"address","indexed":true,"internalType":"address"}],"anonymous":false},{"type":"event","name":"SrcEscrowDeployed","inputs":[{"name":"escrow","type":"address","indexed":true,"internalType":"address"},{"name":"secretHash","type":"bytes32","indexed":true,"internalType":"bytes32"}],"anonymous":false},{"type":"event","name":"SwapCancelled","inputs":[{"name":"secretHash","type":"bytes32","indexed":true,"internalType":"bytes32"}],"anonymous":false},{"type":"event","name":"SwapCompleted","inputs":[{"name":"secretHash","type":"bytes32","indexed":true,"internalType":"bytes32"},{"name":"secret","type":"bytes32","indexed":false,"internalType":"bytes32"}],"anonymous":false}],"bytecode":{"object":"0x60a060405234801561000f575f5ffd5b506040516127763803806127768339818101604052810190610031919061019e565b8173ffffffffffffffffffffffffffffffffffffffff1660808173ffffffffffffffffffffffffffffffffffffffff1681525050805f5f6101000a81548173ffffffffffffffffffffffffffffffffffffffff021916908373ffffffffffffffffffffffffffffffffffffffff1602179055508073ffffffffffffffffffffffffffffffffffffffff165f73ffffffffffffffffffffffffffffffffffffffff167f8be0079c531659141344cd1fd0a4f28419497f9722a3daafe3b4186f6b6457e060405160405180910390a350506101dc565b5f5ffd5b5f73ffffffffffffffffffffffffffffffffffffffff82169050919050565b5f61013282610109565b9050919050565b5f61014382610128565b9050919050565b61015381610139565b811461015d575f5ffd5b50565b5f8151905061016e8161014a565b92915050565b61017d81610128565b8114610187575f5ffd5b50565b5f8151905061019881610174565b92915050565b5f5f604083850312156101b4576101b3610105565b5b5f6101c185828601610160565b92505060206101d28582860161018a565b9150509250929050565b6080516125666102105f395f8181610fc30152818161106a015281816111d5015281816116f5015261179c01526125665ff3fe6080604052600436106100eb575f3560e01c80638da5cb5b11610089578063c2c043c311610058578063c2c043c3146102fb578063eee06a4214610323578063f2fde38b1461034b578063f76031bf14610373576100f2565b80638da5cb5b1461024f57806395ccea6714610279578063b6954330146102a1578063bdd1daaa146102d1576100f2565b8063344fde74116100c5578063344fde74146101965780633662da3c146101be578063502a8a95146101e6578063790c48c914610227576100f2565b806311758b14146100f65780631f3177ba146101325780632e6a954e1461015a576100f2565b366100f257005b5f5ffd5b348015610101575f5ffd5b5061011c60048036038101906101179190611940565b6103a3565b6040516101299190611998565b60405180910390f35b34801561013d575f5ffd5b5061015860048036038101906101539190611a67565b61041b565b005b348015610165575f5ffd5b50610180600480360381019061017b9190611b3f565b61061f565b60405161018d9190611998565b60405180910390f35b3480156101a1575f5ffd5b506101bc60048036038101906101b79190611b3f565b610696565b005b3480156101c9575f5ffd5b506101e460048036038101906101df9190611b6a565b610792565b005b3480156101f1575f5ffd5b5061020c60048036038101906102079190611b3f565b610933565b60405161021e96959493929190611bef565b60405180910390f35b348015610232575f5ffd5b5061024d60048036038101906102489190611b3f565b610be1565b005b34801561025a575f5ffd5b50610263610cdd565b6040516102709190611c4e565b60405180910390f35b348015610284575f5ffd5b5061029f600480360381019061029a9190611cbb565b610d01565b005b6102bb60048036038101906102b69190611cf9565b610f31565b6040516102c89190611c4e565b60405180910390f35b3480156102dc575f5ffd5b506102e56111d3565b6040516102f29190611df1565b60405180910390f35b348015610306575f5ffd5b50610321600480360381019061031c9190611b6a565b6111f7565b005b34801561032e575f5ffd5b5061034960048036038101906103449190611b6a565b611398565b005b348015610356575f5ffd5b50610371600480360381019061036c9190611e0a565b6114ab565b005b61038d60048036038101906103889190611cf9565b611663565b60405161039a9190611c4e565b60405180910390f35b5f816002846040516020016103b89190611e55565b6040516020818303038152906040526040516103d49190611ec1565b602060405180830381855afa1580156103ef573d5f5f3e3d5ffd5b5050506040513d601f19601f820116820180604052508101906104129190611eeb565b14905092915050565b5f5f9054906101000a900473ffffffffffffffffffffffffffffffffffffffff1673ffffffffffffffffffffffffffffffffffffffff163373ffffffffffffffffffffffffffffffffffffffff16146104a9576040517f08c379a00000000000000000000000000000000000000000000000000000000081526004016104a090611f96565b60405180910390fd5b8181905084849050146104f1576040517f08c379a00000000000000000000000000000000000000000000000000000000081526004016104e890611ffe565b60405180910390fd5b5f5f90505b84849050811015610618575f5f8686848181106105165761051561201c565b5b905060200201602081019061052b9190611e0a565b73ffffffffffffffffffffffffffffffffffffffff168585858181106105545761055361201c565b5b90506020028101906105669190612055565b6040516105749291906120e9565b5f604051808303815f865af19150503d805f81146105ad576040519150601f19603f3d011682016040523d82523d5f602084013e6105b2565b606091505b509150915081610609575f815111156105ce5780518082602001fd5b6040517f08c379a00000000000000000000000000000000000000000000000000000000081526004016106009061214b565b60405180910390fd5b505080806001019150506104f6565b5050505050565b5f8173ffffffffffffffffffffffffffffffffffffffff166370dea79a6040518163ffffffff1660e01b8152600401602060405180830381865afa158015610669573d5f5f3e3d5ffd5b505050506040513d601f19601f8201168201806040525081019061068d919061217d565b42119050919050565b5f8190508073ffffffffffffffffffffffffffffffffffffffff16637a3bae426040518163ffffffff1660e01b81526004015f604051808303815f87803b1580156106df575f5ffd5b505af11580156106f1573d5f5f3e3d5ffd5b505050508073ffffffffffffffffffffffffffffffffffffffff1663d29e68036040518163ffffffff1660e01b8152600401602060405180830381865afa15801561073e573d5f5f3e3d5ffd5b505050506040513d601f19601f820116820180604052508101906107629190611eeb565b7f5a399591cfd74c375a1ffd61c20221db0db82381f65516889ed13c8cd1f99d5b60405160405180910390a25050565b5f5f9054906101000a900473ffffffffffffffffffffffffffffffffffffffff1673ffffffffffffffffffffffffffffffffffffffff163373ffffffffffffffffffffffffffffffffffffffff1614610820576040517f08c379a000000000000000000000000000000000000000000000000000000000815260040161081790611f96565b60405180910390fd5b5f8290508073ffffffffffffffffffffffffffffffffffffffff16638e19899e836040518263ffffffff1660e01b815260040161085d91906121a8565b5f604051808303815f87803b158015610874575f5ffd5b505af1158015610886573d5f5f3e3d5ffd5b505050508073ffffffffffffffffffffffffffffffffffffffff1663d29e68036040518163ffffffff1660e01b8152600401602060405180830381865afa1580156108d3573d5f5f3e3d5ffd5b505050506040513d601f19601f820116820180604052508101906108f79190611eeb565b7f7430d80e0e3cfb925010ff8993f6a56392199211e297fc7825278f29980ccf518360405161092691906121a8565b60405180910390a2505050565b5f5f5f5f5f5f5f8790508073ffffffffffffffffffffffffffffffffffffffff1663782b36026040518163ffffffff1660e01b8152600401602060405180830381865afa158015610986573d5f5f3e3d5ffd5b505050506040513d601f19601f820116820180604052508101906109aa91906121d5565b8173ffffffffffffffffffffffffffffffffffffffff166350655d8c6040518163ffffffff1660e01b8152600401602060405180830381865afa1580156109f3573d5f5f3e3d5ffd5b505050506040513d601f19601f82011682018060405250810190610a1791906121d5565b8273ffffffffffffffffffffffffffffffffffffffff1663d29e68036040518163ffffffff1660e01b8152600401602060405180830381865afa158015610a60573d5f5f3e3d5ffd5b505050506040513d601f19601f82011682018060405250810190610a849190611eeb565b8373ffffffffffffffffffffffffffffffffffffffff166370dea79a6040518163ffffffff1660e01b8152600401602060405180830381865afa158015610acd573d5f5f3e3d5ffd5b505050506040513d601f19601f82011682018060405250810190610af1919061217d565b8473ffffffffffffffffffffffffffffffffffffffff166355a373d66040518163ffffffff1660e01b8152600401602060405180830381865afa158015610b3a573d5f5f3e3d5ffd5b505050506040513d601f19601f82011682018060405250810190610b5e919061223b565b8573ffffffffffffffffffffffffffffffffffffffff1663aa8c217c6040518163ffffffff1660e01b8152600401602060405180830381865afa158015610ba7573d5f5f3e3d5ffd5b505050506040513d601f19601f82011682018060405250810190610bcb919061217d565b9650965096509650965096505091939550919395565b5f8190508073ffffffffffffffffffffffffffffffffffffffff16637a3bae426040518163ffffffff1660e01b81526004015f604051808303815f87803b158015610c2a575f5ffd5b505af1158015610c3c573d5f5f3e3d5ffd5b505050508073ffffffffffffffffffffffffffffffffffffffff1663d29e68036040518163ffffffff1660e01b8152600401602060405180830381865afa158015610c89573d5f5f3e3d5ffd5b505050506040513d601f19601f82011682018060405250810190610cad9190611eeb565b7f5a399591cfd74c375a1ffd61c20221db0db82381f65516889ed13c8cd1f99d5b60405160405180910390a25050565b5f5f9054906101000a900473ffffffffffffffffffffffffffffffffffffffff1681565b5f5f9054906101000a900473ffffffffffffffffffffffffffffffffffffffff1673ffffffffffffffffffffffffffffffffffffffff163373ffffffffffffffffffffffffffffffffffffffff1614610d8f576040517f08c379a0000000000000000000000000000000000000000000000000000000008152600401610d8690611f96565b60405180910390fd5b5f73ffffffffffffffffffffffffffffffffffffffff168273ffffffffffffffffffffffffffffffffffffffff1603610e90575f5f5f9054906101000a900473ffffffffffffffffffffffffffffffffffffffff1673ffffffffffffffffffffffffffffffffffffffff1682604051610e0790612289565b5f6040518083038185875af1925050503d805f8114610e41576040519150601f19603f3d011682016040523d82523d5f602084013e610e46565b606091505b5050905080610e8a576040517f08c379a0000000000000000000000000000000000000000000000000000000008152600401610e819061230d565b60405180910390fd5b50610f2d565b8173ffffffffffffffffffffffffffffffffffffffff1663a9059cbb5f5f9054906101000a900473ffffffffffffffffffffffffffffffffffffffff16836040518363ffffffff1660e01b8152600401610eeb92919061232b565b6020604051808303815f875af1158015610f07573d5f5f3e3d5ffd5b505050506040513d601f19601f82011682018060405250810190610f2b919061237c565b505b5050565b5f5f5f9054906101000a900473ffffffffffffffffffffffffffffffffffffffff1673ffffffffffffffffffffffffffffffffffffffff163373ffffffffffffffffffffffffffffffffffffffff1614610fc0576040517f08c379a0000000000000000000000000000000000000000000000000000000008152600401610fb790611f96565b60405180910390fd5b5f7f000000000000000000000000000000000000000000000000000000000000000073ffffffffffffffffffffffffffffffffffffffff166311bd90468a8a8a8a8a8a8a6040518863ffffffff1660e01b815260040161102697969594939291906123a7565b602060405180830381865afa158015611041573d5f5f3e3d5ffd5b505050506040513d601f19601f8201168201806040525081019061106591906121d5565b90505f7f000000000000000000000000000000000000000000000000000000000000000073ffffffffffffffffffffffffffffffffffffffff1663e31b04df348c8c8c8c8c8c8c6040518963ffffffff1660e01b81526004016110ce97969594939291906123a7565b60206040518083038185885af11580156110ea573d5f5f3e3d5ffd5b50505050506040513d601f19601f8201168201806040525081019061110f91906121d5565b90508173ffffffffffffffffffffffffffffffffffffffff168173ffffffffffffffffffffffffffffffffffffffff161461117f576040517f08c379a000000000000000000000000000000000000000000000000000000000815260040161117690612484565b60405180910390fd5b878173ffffffffffffffffffffffffffffffffffffffff167ffc76a082bcb53b5cd389b4c819e6c29653977d94b61a2a4fa4de1339a1a046a760405160405180910390a38092505050979650505050505050565b7f000000000000000000000000000000000000000000000000000000000000000081565b5f5f9054906101000a900473ffffffffffffffffffffffffffffffffffffffff1673ffffffffffffffffffffffffffffffffffffffff163373ffffffffffffffffffffffffffffffffffffffff1614611285576040517f08c379a000000000000000000000000000000000000000000000000000000000815260040161127c90611f96565b60405180910390fd5b5f8290508073ffffffffffffffffffffffffffffffffffffffff16638e19899e836040518263ffffffff1660e01b81526004016112c291906121a8565b5f604051808303815f87803b1580156112d9575f5ffd5b505af11580156112eb573d5f5f3e3d5ffd5b505050508073ffffffffffffffffffffffffffffffffffffffff1663d29e68036040518163ffffffff1660e01b8152600401602060405180830381865afa158015611338573d5f5f3e3d5ffd5b505050506040513d601f19601f8201168201806040525081019061135c9190611eeb565b7f7430d80e0e3cfb925010ff8993f6a56392199211e297fc7825278f29980ccf518360405161138b91906121a8565b60405180910390a2505050565b5f8290508073ffffffffffffffffffffffffffffffffffffffff166356ea5f90836040518263ffffffff1660e01b81526004016113d591906121a8565b5f604051808303815f87803b1580156113ec575f5ffd5b505af11580156113fe573d5f5f3e3d5ffd5b505050508073ffffffffffffffffffffffffffffffffffffffff1663d29e68036040518163ffffffff1660e01b8152600401602060405180830381865afa15801561144b573d5f5f3e3d5ffd5b505050506040513d601f19601f8201168201806040525081019061146f9190611eeb565b7f7430d80e0e3cfb925010ff8993f6a56392199211e297fc7825278f29980ccf518360405161149e91906121a8565b60405180910390a2505050565b5f5f9054906101000a900473ffffffffffffffffffffffffffffffffffffffff1673ffffffffffffffffffffffffffffffffffffffff163373ffffffffffffffffffffffffffffffffffffffff1614611539576040517f08c379a000000000000000000000000000000000000000000000000000000000815260040161153090611f96565b60405180910390fd5b5f73ffffffffffffffffffffffffffffffffffffffff168173ffffffffffffffffffffffffffffffffffffffff16036115a7576040517f08c379a000000000000000000000000000000000000000000000000000000000815260040161159e90612512565b60405180910390fd5b8073ffffffffffffffffffffffffffffffffffffffff165f5f9054906101000a900473ffffffffffffffffffffffffffffffffffffffff1673ffffffffffffffffffffffffffffffffffffffff167f8be0079c531659141344cd1fd0a4f28419497f9722a3daafe3b4186f6b6457e060405160405180910390a3805f5f6101000a81548173ffffffffffffffffffffffffffffffffffffffff021916908373ffffffffffffffffffffffffffffffffffffffff16021790555050565b5f5f5f9054906101000a900473ffffffffffffffffffffffffffffffffffffffff1673ffffffffffffffffffffffffffffffffffffffff163373ffffffffffffffffffffffffffffffffffffffff16146116f2576040517f08c379a00000000000000000000000000000000000000000000000000000000081526004016116e990611f96565b60405180910390fd5b5f7f000000000000000000000000000000000000000000000000000000000000000073ffffffffffffffffffffffffffffffffffffffff1663eed5f7118a8a8a8a8a8a8a6040518863ffffffff1660e01b815260040161175897969594939291906123a7565b602060405180830381865afa158015611773573d5f5f3e3d5ffd5b505050506040513d601f19601f8201168201806040525081019061179791906121d5565b90505f7f000000000000000000000000000000000000000000000000000000000000000073ffffffffffffffffffffffffffffffffffffffff1663316a2641348c8c8c8c8c8c8c6040518963ffffffff1660e01b815260040161180097969594939291906123a7565b60206040518083038185885af115801561181c573d5f5f3e3d5ffd5b50505050506040513d601f19601f8201168201806040525081019061184191906121d5565b90508173ffffffffffffffffffffffffffffffffffffffff168173ffffffffffffffffffffffffffffffffffffffff16146118b1576040517f08c379a00000000000000000000000000000000000000000000000000000000081526004016118a890612484565b60405180910390fd5b878173ffffffffffffffffffffffffffffffffffffffff167f1519001637cf820d5c8d24d13a261a583b36205d5bc6aaf7ef22efa836e632ed60405160405180910390a38092505050979650505050505050565b5f5ffd5b5f5ffd5b5f819050919050565b61191f8161190d565b8114611929575f5ffd5b50565b5f8135905061193a81611916565b92915050565b5f5f6040838503121561195657611955611905565b5b5f6119638582860161192c565b92505060206119748582860161192c565b9150509250929050565b5f8115159050919050565b6119928161197e565b82525050565b5f6020820190506119ab5f830184611989565b92915050565b5f5ffd5b5f5ffd5b5f5ffd5b5f5f83601f8401126119d2576119d16119b1565b5b8235905067ffffffffffffffff8111156119ef576119ee6119b5565b5b602083019150836020820283011115611a0b57611a0a6119b9565b5b9250929050565b5f5f83601f840112611a2757611a266119b1565b5b8235905067ffffffffffffffff811115611a4457611a436119b5565b5b602083019150836020820283011115611a6057611a5f6119b9565b5b9250929050565b5f5f5f5f60408587031215611a7f57611a7e611905565b5b5f85013567ffffffffffffffff811115611a9c57611a9b611909565b5b611aa8878288016119bd565b9450945050602085013567ffffffffffffffff811115611acb57611aca611909565b5b611ad787828801611a12565b925092505092959194509250565b5f73ffffffffffffffffffffffffffffffffffffffff82169050919050565b5f611b0e82611ae5565b9050919050565b611b1e81611b04565b8114611b28575f5ffd5b50565b5f81359050611b3981611b15565b92915050565b5f60208284031215611b5457611b53611905565b5b5f611b6184828501611b2b565b91505092915050565b5f5f60408385031215611b8057611b7f611905565b5b5f611b8d85828601611b2b565b9250506020611b9e8582860161192c565b9150509250929050565b5f611bb282611ae5565b9050919050565b611bc281611ba8565b82525050565b611bd18161190d565b82525050565b5f819050919050565b611be981611bd7565b82525050565b5f60c082019050611c025f830189611bb9565b611c0f6020830188611bb9565b611c1c6040830187611bc8565b611c296060830186611be0565b611c366080830185611bb9565b611c4360a0830184611be0565b979650505050505050565b5f602082019050611c615f830184611bb9565b92915050565b611c7081611ba8565b8114611c7a575f5ffd5b50565b5f81359050611c8b81611c67565b92915050565b611c9a81611bd7565b8114611ca4575f5ffd5b50565b5f81359050611cb581611c91565b92915050565b5f5f60408385031215611cd157611cd0611905565b5b5f611cde85828601611c7d565b9250506020611cef85828601611ca7565b9150509250929050565b5f5f5f5f5f5f5f60e0888a031215611d1457611d13611905565b5b5f611d218a828b01611c7d565b9750506020611d328a828b01611c7d565b9650506040611d438a828b0161192c565b9550506060611d548a828b01611ca7565b9450506080611d658a828b01611c7d565b93505060a0611d768a828b01611ca7565b92505060c0611d878a828b0161192c565b91505092959891949750929550565b5f819050919050565b5f611db9611db4611daf84611ae5565b611d96565b611ae5565b9050919050565b5f611dca82611d9f565b9050919050565b5f611ddb82611dc0565b9050919050565b611deb81611dd1565b82525050565b5f602082019050611e045f830184611de2565b92915050565b5f60208284031215611e1f57611e1e611905565b5b5f611e2c84828501611c7d565b91505092915050565b5f819050919050565b611e4f611e4a8261190d565b611e35565b82525050565b5f611e608284611e3e565b60208201915081905092915050565b5f81519050919050565b5f81905092915050565b8281835e5f83830152505050565b5f611e9b82611e6f565b611ea58185611e79565b9350611eb5818560208601611e83565b80840191505092915050565b5f611ecc8284611e91565b915081905092915050565b5f81519050611ee581611916565b92915050565b5f60208284031215611f0057611eff611905565b5b5f611f0d84828501611ed7565b91505092915050565b5f82825260208201905092915050565b7f5265736f6c7665723a2063616c6c6572206973206e6f7420746865206f776e655f8201527f7200000000000000000000000000000000000000000000000000000000000000602082015250565b5f611f80602183611f16565b9150611f8b82611f26565b604082019050919050565b5f6020820190508181035f830152611fad81611f74565b9050919050565b7f5265736f6c7665723a206c656e677468206d69736d61746368000000000000005f82015250565b5f611fe8601983611f16565b9150611ff382611fb4565b602082019050919050565b5f6020820190508181035f83015261201581611fdc565b9050919050565b7f4e487b71000000000000000000000000000000000000000000000000000000005f52603260045260245ffd5b5f5ffd5b5f5ffd5b5f5ffd5b5f5f8335600160200384360303811261207157612070612049565b5b80840192508235915067ffffffffffffffff8211156120935761209261204d565b5b6020830192506001820236038313156120af576120ae612051565b5b509250929050565b828183375f83830152505050565b5f6120d08385611e79565b93506120dd8385846120b7565b82840190509392505050565b5f6120f58284866120c5565b91508190509392505050565b7f5265736f6c7665723a2063616c6c206661696c656400000000000000000000005f82015250565b5f612135601583611f16565b915061214082612101565b602082019050919050565b5f6020820190508181035f83015261216281612129565b9050919050565b5f8151905061217781611c91565b92915050565b5f6020828403121561219257612191611905565b5b5f61219f84828501612169565b91505092915050565b5f6020820190506121bb5f830184611bc8565b92915050565b5f815190506121cf81611c67565b92915050565b5f602082840312156121ea576121e9611905565b5b5f6121f7848285016121c1565b91505092915050565b5f61220a82611ba8565b9050919050565b61221a81612200565b8114612224575f5ffd5b50565b5f8151905061223581612211565b92915050565b5f602082840312156122505761224f611905565b5b5f61225d84828501612227565b91505092915050565b50565b5f6122745f83611e79565b915061227f82612266565b5f82019050919050565b5f61229382612269565b9150819050919050565b7f5265736f6c7665723a206e6174697665207769746864726177616c206661696c5f8201527f6564000000000000000000000000000000000000000000000000000000000000602082015250565b5f6122f7602283611f16565b91506123028261229d565b604082019050919050565b5f6020820190508181035f830152612324816122eb565b9050919050565b5f60408201905061233e5f830185611bb9565b61234b6020830184611be0565b9392505050565b61235b8161197e565b8114612365575f5ffd5b50565b5f8151905061237681612352565b92915050565b5f6020828403121561239157612390611905565b5b5f61239e84828501612368565b91505092915050565b5f60e0820190506123ba5f83018a611bb9565b6123c76020830189611bb9565b6123d46040830188611bc8565b6123e16060830187611be0565b6123ee6080830186611bb9565b6123fb60a0830185611be0565b61240860c0830184611bc8565b98975050505050505050565b7f5265736f6c7665723a20756e657870656374656420657363726f7720616464725f8201527f6573730000000000000000000000000000000000000000000000000000000000602082015250565b5f61246e602383611f16565b915061247982612414565b604082019050919050565b5f6020820190508181035f83015261249b81612462565b9050919050565b7f5265736f6c7665723a206e6577206f776e657220697320746865207a65726f205f8201527f6164647265737300000000000000000000000000000000000000000000000000602082015250565b5f6124fc602783611f16565b9150612507826124a2565b604082019050919050565b5f6020820190508181035f830152612529816124f0565b905091905056fea264697066735822122090ec795d5f060b355f797b3d36c6f73a6622e10e9e9c2329c968b89bf609708164736f6c634300081e0033","linkReferences":{}},"methodIdentifiers":{"arbitraryCalls(address[],bytes[])":"1f3177ba","cancelDst(address)":"344fde74","cancelSrc(address)":"790c48c9","deployDstEscrow(address,address,bytes32,uint256,address,uint256,bytes32)":"f76031bf","deploySrcEscrow(address,address,bytes32,uint256,address,uint256,bytes32)":"b6954330","emergencyWithdraw(address,uint256)":"95ccea67","escrowFactory()":"bdd1daaa","getEscrowInfo(address)":"502a8a95","isTimeoutPassed(address)":"2e6a954e","owner()":"8da5cb5b","publicWithdraw(address,bytes32)":"eee06a42","transferOwnership(address)":"f2fde38b","verifySecret(bytes32,bytes32)":"11758b14","withdrawFromDst(address,bytes32)":"c2c043c3","withdrawFromSrc(address,bytes32)":"3662da3c"},"id":27}