{"abi":[{"type":"function","name":"addressOfEscrowDst","inputs":[{"name":"taker","type":"address","internalType":"address"},{"name":"maker","type":"address","internalType":"address"},{"name":"secretHash","type":"bytes32","internalType":"bytes32"},{"name":"timeout","type":"uint256","internalType":"uint256"},{"name":"tokenContract","type":"address","internalType":"address"},{"name":"amount","type":"uint256","internalType":"uint256"},{"name":"salt","type":"bytes32","internalType":"bytes32"}],"outputs":[{"name":"","type":"address","internalType":"address"}],"stateMutability":"view"},{"type":"function","name":"addressOfEscrowSrc","inputs":[{"name":"taker","type":"address","internalType":"address"},{"name":"maker","type":"address","internalType":"address"},{"name":"secretHash","type":"bytes32","internalType":"bytes32"},{"name":"timeout","type":"uint256","internalType":"uint256"},{"name":"tokenContract","type":"address","internalType":"address"},{"name":"amount","type":"uint256","internalType":"uint256"},{"name":"salt","type":"bytes32","internalType":"bytes32"}],"outputs":[{"name":"","type":"address","internalType":"address"}],"stateMutability":"view"},{"type":"function","name":"createDstEscrow","inputs":[{"name":"taker","type":"address","internalType":"address"},{"name":"maker","type":"address","internalType":"address"},{"name":"secretHash","type":"bytes32","internalType":"bytes32"},{"name":"timeout","type":"uint256","internalType":"uint256"},{"name":"tokenContract","type":"address","internalType":"address"},{"name":"amount","type":"uint256","internalType":"uint256"},{"name":"salt","type":"bytes32","internalType":"bytes32"}],"outputs":[{"name":"","type":"address","internalType":"address"}],"stateMutability":"payable"},{"type":"function","name":"createSrcEscrow","inputs":[{"name":"taker","type":"address","internalType":"address"},{"name":"maker","type":"address","internalType":"address"},{"name":"secretHash","type":"bytes32","internalType":"bytes32"},{"name":"timeout","type":"uint256","internalType":"uint256"},{"name":"tokenContract","type":"address","internalType":"address"},{"name":"amount","type":"uint256","internalType":"uint256"},{"name":"salt","type":"bytes32","internalType":"bytes32"}],"outputs":[{"name":"","type":"address","internalType":"address"}],"stateMutability":"payable"},{"type":"event","name":"CreatedEscrow","inputs":[{"name":"escrow","type":"address","indexed":true,"internalType":"address"},{"name":"creator","type":"address","indexed":true,"internalType":"address"},{"name":"isSrc","type":"bool","indexed":false,"internalType":"bool"}],"anonymous":false}],"bytecode":{"object":"0x6080604052348015600e575f5ffd5b506135d18061001c5f395ff3fe60806040526004361061003e575f3560e01c806311bd904614610042578063316a26411461007e578063e31b04df146100ae578063eed5f711146100de575b5f5ffd5b34801561004d575f5ffd5b50610068600480360381019061006391906108a5565b61011a565b6040516100759190610951565b60405180910390f35b610098600480360381019061009391906108a5565b6101d4565b6040516100a59190610951565b60405180910390f35b6100c860048036038101906100c391906108a5565b610470565b6040516100d59190610951565b60405180910390f35b3480156100e9575f5ffd5b5061010460048036038101906100ff91906108a5565b61070d565b6040516101119190610951565b60405180910390f35b5f5f6040518060200161012c906107c7565b6020820181038252601f19601f8201166040525089898989898960405160200161015b96959493929190610988565b60405160208183030381529060405260405160200161017b929190610a39565b604051602081830303815290604052905060ff60f81b308483805190602001206040516020016101ae9493929190610b0c565b604051602081830303815290604052805190602001205f1c915050979650505050505050565b5f5f828989898989896040516101e9906107d4565b6101f896959493929190610988565b8190604051809103905ff5905080158015610215573d5f5f3e3d5ffd5b5090505f73ffffffffffffffffffffffffffffffffffffffff168573ffffffffffffffffffffffffffffffffffffffff160361033b5783341461028d576040517f08c379a000000000000000000000000000000000000000000000000000000000815260040161028490610bb3565b60405180910390fd5b5f8173ffffffffffffffffffffffffffffffffffffffff16856040516102b290610bf4565b5f6040518083038185875af1925050503d805f81146102ec576040519150601f19603f3d011682016040523d82523d5f602084013e6102f1565b606091505b5050905080610335576040517f08c379a000000000000000000000000000000000000000000000000000000000815260040161032c90610c52565b60405180910390fd5b506103fc565b5f341461037d576040517f08c379a000000000000000000000000000000000000000000000000000000000815260040161037490610ce0565b60405180910390fd5b8473ffffffffffffffffffffffffffffffffffffffff166323b872dd3383876040518463ffffffff1660e01b81526004016103ba93929190610cfe565b6020604051808303815f875af11580156103d6573d5f5f3e3d5ffd5b505050506040513d601f19601f820116820180604052508101906103fa9190610d68565b505b3373ffffffffffffffffffffffffffffffffffffffff168173ffffffffffffffffffffffffffffffffffffffff167f43356d7704b5f9f304c2e9732ec924a96ce782114ba6e2f3ee2a1891c1f5a01d5f6040516104599190610da2565b60405180910390a380915050979650505050505050565b5f5f82898989898989604051610485906107c7565b61049496959493929190610988565b8190604051809103905ff59050801580156104b1573d5f5f3e3d5ffd5b5090505f73ffffffffffffffffffffffffffffffffffffffff168573ffffffffffffffffffffffffffffffffffffffff16036105d757833414610529576040517f08c379a000000000000000000000000000000000000000000000000000000000815260040161052090610bb3565b60405180910390fd5b5f8173ffffffffffffffffffffffffffffffffffffffff168560405161054e90610bf4565b5f6040518083038185875af1925050503d805f8114610588576040519150601f19603f3d011682016040523d82523d5f602084013e61058d565b606091505b50509050806105d1576040517f08c379a00000000000000000000000000000000000000000000000000000000081526004016105c890610c52565b60405180910390fd5b50610698565b5f3414610619576040517f08c379a000000000000000000000000000000000000000000000000000000000815260040161061090610ce0565b60405180910390fd5b8473ffffffffffffffffffffffffffffffffffffffff166323b872dd3383876040518463ffffffff1660e01b815260040161065693929190610cfe565b6020604051808303815f875af1158015610672573d5f5f3e3d5ffd5b505050506040513d601f19601f820116820180604052508101906106969190610d68565b505b3373ffffffffffffffffffffffffffffffffffffffff168173ffffffffffffffffffffffffffffffffffffffff167f43356d7704b5f9f304c2e9732ec924a96ce782114ba6e2f3ee2a1891c1f5a01d60016040516106f69190610da2565b60405180910390a380915050979650505050505050565b5f5f6040518060200161071f906107d4565b6020820181038252601f19601f8201166040525089898989898960405160200161074e96959493929190610988565b60405160208183030381529060405260405160200161076e929190610a39565b604051602081830303815290604052905060ff60f81b308483805190602001206040516020016107a19493929190610b0c565b604051602081830303815290604052805190602001205f1c915050979650505050505050565b6113f080610dbc83390190565b6113f0806121ac83390190565b5f5ffd5b5f73ffffffffffffffffffffffffffffffffffffffff82169050919050565b5f61080e826107e5565b9050919050565b61081e81610804565b8114610828575f5ffd5b50565b5f8135905061083981610815565b92915050565b5f819050919050565b6108518161083f565b811461085b575f5ffd5b50565b5f8135905061086c81610848565b92915050565b5f819050919050565b61088481610872565b811461088e575f5ffd5b50565b5f8135905061089f8161087b565b92915050565b5f5f5f5f5f5f5f60e0888a0312156108c0576108bf6107e1565b5b5f6108cd8a828b0161082b565b97505060206108de8a828b0161082b565b96505060406108ef8a828b0161085e565b95505060606109008a828b01610891565b94505060806109118a828b0161082b565b93505060a06109228a828b01610891565b92505060c06109338a828b0161085e565b91505092959891949750929550565b61094b81610804565b82525050565b5f6020820190506109645f830184610942565b92915050565b6109738161083f565b82525050565b61098281610872565b82525050565b5f60c08201905061099b5f830189610942565b6109a86020830188610942565b6109b5604083018761096a565b6109c26060830186610979565b6109cf6080830185610942565b6109dc60a0830184610979565b979650505050505050565b5f81519050919050565b5f81905092915050565b8281835e5f83830152505050565b5f610a13826109e7565b610a1d81856109f1565b9350610a2d8185602086016109fb565b80840191505092915050565b5f610a448285610a09565b9150610a508284610a09565b91508190509392505050565b5f7fff0000000000000000000000000000000000000000000000000000000000000082169050919050565b5f819050919050565b610aa1610a9c82610a5c565b610a87565b82525050565b5f8160601b9050919050565b5f610abd82610aa7565b9050919050565b5f610ace82610ab3565b9050919050565b610ae6610ae182610804565b610ac4565b82525050565b5f819050919050565b610b06610b018261083f565b610aec565b82525050565b5f610b178287610a90565b600182019150610b278286610ad5565b601482019150610b378285610af5565b602082019150610b478284610af5565b60208201915081905095945050505050565b5f82825260208201905092915050565b7f466163746f72793a206e61746976652076616c756520696e636f7272656374005f82015250565b5f610b9d601f83610b59565b9150610ba882610b69565b602082019050919050565b5f6020820190508181035f830152610bca81610b91565b9050919050565b50565b5f610bdf5f836109f1565b9150610bea82610bd1565b5f82019050919050565b5f610bfe82610bd4565b9150819050919050565b7f466163746f72793a206e6174697665206465706f736974206661696c656400005f82015250565b5f610c3c601e83610b59565b9150610c4782610c08565b602082019050919050565b5f6020820190508181035f830152610c6981610c30565b9050919050565b7f466163746f72793a206e6f6e2d7a65726f2076616c756520666f7220746f6b655f8201527f6e00000000000000000000000000000000000000000000000000000000000000602082015250565b5f610cca602183610b59565b9150610cd582610c70565b604082019050919050565b5f6020820190508181035f830152610cf781610cbe565b9050919050565b5f606082019050610d115f830186610942565b610d1e6020830185610942565b610d2b6040830184610979565b949350505050565b5f8115159050919050565b610d4781610d33565b8114610d51575f5ffd5b50565b5f81519050610d6281610d3e565b92915050565b5f60208284031215610d7d57610d7c6107e1565b5b5f610d8a84828501610d54565b91505092915050565b610d9c81610d33565b82525050565b5f602082019050610db55f830184610d93565b9291505056fe610140604052348015610010575f5ffd5b506040516113f03803806113f083398181016040528101906100329190610247565b8585858585855f811161007a576040517f08c379a00000000000000000000000000000000000000000000000000000000081526004016100719061032a565b60405180910390fd5b4283116100bc576040517f08c379a00000000000000000000000000000000000000000000000000000000081526004016100b3906103b8565b60405180910390fd5b8573ffffffffffffffffffffffffffffffffffffffff1660808173ffffffffffffffffffffffffffffffffffffffff16815250508473ffffffffffffffffffffffffffffffffffffffff1660a08173ffffffffffffffffffffffffffffffffffffffff16815250508360c081815250508260e081815250508173ffffffffffffffffffffffffffffffffffffffff166101008173ffffffffffffffffffffffffffffffffffffffff16815250508061012081815250505050505050505050505050506103d6565b5f5ffd5b5f73ffffffffffffffffffffffffffffffffffffffff82169050919050565b5f6101b082610187565b9050919050565b6101c0816101a6565b81146101ca575f5ffd5b50565b5f815190506101db816101b7565b92915050565b5f819050919050565b6101f3816101e1565b81146101fd575f5ffd5b50565b5f8151905061020e816101ea565b92915050565b5f819050919050565b61022681610214565b8114610230575f5ffd5b50565b5f815190506102418161021d565b92915050565b5f5f5f5f5f5f60c0878903121561026157610260610183565b5b5f61026e89828a016101cd565b965050602061027f89828a016101cd565b955050604061029089828a01610200565b94505060606102a189828a01610233565b93505060806102b289828a016101cd565b92505060a06102c389828a01610233565b9150509295509295509295565b5f82825260208201905092915050565b7f457363726f773a20616d6f756e74206d75737420626520706f736974697665005f82015250565b5f610314601f836102d0565b915061031f826102e0565b602082019050919050565b5f6020820190508181035f83015261034181610308565b9050919050565b7f457363726f773a2074696d656f7574206d75737420626520696e2066757475725f8201527f6500000000000000000000000000000000000000000000000000000000000000602082015250565b5f6103a26021836102d0565b91506103ad82610348565b604082019050919050565b5f6020820190508181035f8301526103cf81610396565b9050919050565b60805160a05160c05160e0516101005161012051610f786104785f395f81816104bf01528181610572015261066601525f818161021c0152818161051e015261062901525f8181610240015281816103d30152818161072b01526107e401525f81816102a2015281816104e3015261084701525f81816101f8015261079001525f8181610373015281816103f70152818161042501526109180152610f785ff3fe608060405260043610610089575f3560e01c8063782b360211610058578063782b36021461013a5780637a3bae42146101645780638e19899e1461017a578063aa8c217c146101a2578063d29e6803146101cc57610090565b806350655d8c1461009457806355a373d6146100be57806356ea5f90146100e857806370dea79a1461011057610090565b3661009057005b5f5ffd5b34801561009f575f5ffd5b506100a86101f6565b6040516100b591906109b5565b60405180910390f35b3480156100c9575f5ffd5b506100d261021a565b6040516100df9190610a29565b60405180910390f35b3480156100f3575f5ffd5b5061010e60048036038101906101099190610a79565b61023e565b005b34801561011b575f5ffd5b506101246103d1565b6040516101319190610abc565b60405180910390f35b348015610145575f5ffd5b5061014e6103f5565b60405161015b91906109b5565b60405180910390f35b34801561016f575f5ffd5b50610178610419565b005b348015610185575f5ffd5b506101a0600480360381019061019b9190610a79565b610423565b005b3480156101ad575f5ffd5b506101b66104bd565b6040516101c39190610abc565b60405180910390f35b3480156101d7575f5ffd5b506101e06104e1565b6040516101ed9190610ae4565b60405180910390f35b7f000000000000000000000000000000000000000000000000000000000000000081565b7f000000000000000000000000000000000000000000000000000000000000000081565b7f000000000000000000000000000000000000000000000000000000000000000042116102a0576040517f08c379a000000000000000000000000000000000000000000000000000000000815260040161029790610b57565b60405180910390fd5b7f00000000000000000000000000000000000000000000000000000000000000006002826040516020016102d49190610b95565b6040516020818303038152906040526040516102f09190610c01565b602060405180830381855afa15801561030b573d5f5f3e3d5ffd5b5050506040513d601f19601f8201168201806040525081019061032e9190610c2b565b1461036e576040517f08c379a000000000000000000000000000000000000000000000000000000000815260040161036590610ca0565b60405180910390fd5b6103977f0000000000000000000000000000000000000000000000000000000000000000610505565b7f44654674e66e9e53d34afdf3e9513fb94b4c8b946e980d6958ef4e6a37a153e3816040516103c69190610ae4565b60405180910390a150565b7f000000000000000000000000000000000000000000000000000000000000000081565b7f000000000000000000000000000000000000000000000000000000000000000081565b610421610729565b565b7f000000000000000000000000000000000000000000000000000000000000000073ffffffffffffffffffffffffffffffffffffffff163373ffffffffffffffffffffffffffffffffffffffff16146104b1576040517f08c379a00000000000000000000000000000000000000000000000000000000081526004016104a890610d2e565b60405180910390fd5b6104ba816107e2565b50565b7f000000000000000000000000000000000000000000000000000000000000000081565b7f000000000000000000000000000000000000000000000000000000000000000081565b5f73ffffffffffffffffffffffffffffffffffffffff167f000000000000000000000000000000000000000000000000000000000000000073ffffffffffffffffffffffffffffffffffffffff1603610626575f8173ffffffffffffffffffffffffffffffffffffffff167f000000000000000000000000000000000000000000000000000000000000000060405161059d90610d6f565b5f6040518083038185875af1925050503d805f81146105d7576040519150601f19603f3d011682016040523d82523d5f602084013e6105dc565b606091505b5050905080610620576040517f08c379a000000000000000000000000000000000000000000000000000000000815260040161061790610dcd565b60405180910390fd5b50610726565b5f7f000000000000000000000000000000000000000000000000000000000000000073ffffffffffffffffffffffffffffffffffffffff1663a9059cbb837f00000000000000000000000000000000000000000000000000000000000000006040518363ffffffff1660e01b81526004016106a2929190610deb565b6020604051808303815f875af11580156106be573d5f5f3e3d5ffd5b505050506040513d601f19601f820116820180604052508101906106e29190610e47565b905080610724576040517f08c379a000000000000000000000000000000000000000000000000000000000815260040161071b90610ebc565b60405180910390fd5b505b50565b7f0000000000000000000000000000000000000000000000000000000000000000421161078b576040517f08c379a000000000000000000000000000000000000000000000000000000000815260040161078290610b57565b60405180910390fd5b6107b47f0000000000000000000000000000000000000000000000000000000000000000610505565b7f63b958841f79ab97cb5456da181454b9932c0e15a3b17f1cbd27e2a8bc61043760405160405180910390a1565b7f0000000000000000000000000000000000000000000000000000000000000000421115610845576040517f08c379a000000000000000000000000000000000000000000000000000000000815260040161083c90610f24565b60405180910390fd5b7f00000000000000000000000000000000000000000000000000000000000000006002826040516020016108799190610b95565b6040516020818303038152906040526040516108959190610c01565b602060405180830381855afa1580156108b0573d5f5f3e3d5ffd5b5050506040513d601f19601f820116820180604052508101906108d39190610c2b565b14610913576040517f08c379a000000000000000000000000000000000000000000000000000000000815260040161090a90610ca0565b60405180910390fd5b61093c7f0000000000000000000000000000000000000000000000000000000000000000610505565b7f44654674e66e9e53d34afdf3e9513fb94b4c8b946e980d6958ef4e6a37a153e38160405161096b9190610ae4565b60405180910390a150565b5f73ffffffffffffffffffffffffffffffffffffffff82169050919050565b5f61099f82610976565b9050919050565b6109af81610995565b82525050565b5f6020820190506109c85f8301846109a6565b92915050565b5f819050919050565b5f6109f16109ec6109e784610976565b6109ce565b610976565b9050919050565b5f610a02826109d7565b9050919050565b5f610a13826109f8565b9050919050565b610a2381610a09565b82525050565b5f602082019050610a3c5f830184610a1a565b92915050565b5f5ffd5b5f819050919050565b610a5881610a46565b8114610a62575f5ffd5b50565b5f81359050610a7381610a4f565b92915050565b5f60208284031215610a8e57610a8d610a42565b5b5f610a9b84828501610a65565b91505092915050565b5f819050919050565b610ab681610aa4565b82525050565b5f602082019050610acf5f830184610aad565b92915050565b610ade81610a46565b82525050565b5f602082019050610af75f830184610ad5565b92915050565b5f82825260208201905092915050565b7f457363726f773a2074696d656f757420686173206e6f742070617373656400005f82015250565b5f610b41601e83610afd565b9150610b4c82610b0d565b602082019050919050565b5f6020820190508181035f830152610b6e81610b35565b9050919050565b5f819050919050565b610b8f610b8a82610a46565b610b75565b82525050565b5f610ba08284610b7e565b60208201915081905092915050565b5f81519050919050565b5f81905092915050565b8281835e5f83830152505050565b5f610bdb82610baf565b610be58185610bb9565b9350610bf5818560208601610bc3565b80840191505092915050565b5f610c0c8284610bd1565b915081905092915050565b5f81519050610c2581610a4f565b92915050565b5f60208284031215610c4057610c3f610a42565b5b5f610c4d84828501610c17565b91505092915050565b7f457363726f773a20696e76616c696420736563726574000000000000000000005f82015250565b5f610c8a601683610afd565b9150610c9582610c56565b602082019050919050565b5f6020820190508181035f830152610cb781610c7e565b9050919050565b7f457363726f775372633a2063616c6c6572206973206e6f74207468652074616b5f8201527f6572000000000000000000000000000000000000000000000000000000000000602082015250565b5f610d18602283610afd565b9150610d2382610cbe565b604082019050919050565b5f6020820190508181035f830152610d4581610d0c565b9050919050565b50565b5f610d5a5f83610bb9565b9150610d6582610d4c565b5f82019050919050565b5f610d7982610d4f565b9150819050919050565b7f457363726f773a206e6174697665207472616e73666572206661696c656400005f82015250565b5f610db7601e83610afd565b9150610dc282610d83565b602082019050919050565b5f6020820190508181035f830152610de481610dab565b9050919050565b5f604082019050610dfe5f8301856109a6565b610e0b6020830184610aad565b9392505050565b5f8115159050919050565b610e2681610e12565b8114610e30575f5ffd5b50565b5f81519050610e4181610e1d565b92915050565b5f60208284031215610e5c57610e5b610a42565b5b5f610e6984828501610e33565b91505092915050565b7f457363726f773a204552433230207472616e73666572206661696c65640000005f82015250565b5f610ea6601d83610afd565b9150610eb182610e72565b602082019050919050565b5f6020820190508181035f830152610ed381610e9a565b9050919050565b7f457363726f773a2074696d656f757420686173207061737365640000000000005f82015250565b5f610f0e601a83610afd565b9150610f1982610eda565b602082019050919050565b5f6020820190508181035f830152610f3b81610f02565b905091905056fea26469706673582212203a532d24b9a9e1f47fa4cc413b1f94ce6559d5907333c4d6f3ae83c3ee16886d64736f6c634300081e0033610140604052348015610010575f5ffd5b506040516113f03803806113f083398181016040528101906100329190610247565b8585858585855f811161007a576040517f08c379a00000000000000000000000000000000000000000000000000000000081526004016100719061032a565b60405180910390fd5b4283116100bc576040517f08c379a00000000000000000000000000000000000000000000000000000000081526004016100b3906103b8565b60405180910390fd5b8573ffffffffffffffffffffffffffffffffffffffff1660808173ffffffffffffffffffffffffffffffffffffffff16815250508473ffffffffffffffffffffffffffffffffffffffff1660a08173ffffffffffffffffffffffffffffffffffffffff16815250508360c081815250508260e081815250508173ffffffffffffffffffffffffffffffffffffffff166101008173ffffffffffffffffffffffffffffffffffffffff16815250508061012081815250505050505050505050505050506103d6565b5f5ffd5b5f73ffffffffffffffffffffffffffffffffffffffff82169050919050565b5f6101b082610187565b9050919050565b6101c0816101a6565b81146101ca575f5ffd5b50565b5f815190506101db816101b7565b92915050565b5f819050919050565b6101f3816101e1565b81146101fd575f5ffd5b50565b5f8151905061020e816101ea565b92915050565b5f819050919050565b61022681610214565b8114610230575f5ffd5b50565b5f815190506102418161021d565b92915050565b5f5f5f5f5f5f60c0878903121561026157610260610183565b5b5f61026e89828a016101cd565b965050602061027f89828a016101cd565b955050604061029089828a01610200565b94505060606102a189828a01610233565b93505060806102b289828a016101cd565b92505060a06102c389828a01610233565b9150509295509295509295565b5f82825260208201905092915050565b7f457363726f773a20616d6f756e74206d75737420626520706f736974697665005f82015250565b5f610314601f836102d0565b915061031f826102e0565b602082019050919050565b5f6020820190508181035f83015261034181610308565b9050919050565b7f457363726f773a2074696d656f7574206d75737420626520696e2066757475725f8201527f6500000000000000000000000000000000000000000000000000000000000000602082015250565b5f6103a26021836102d0565b91506103ad82610348565b604082019050919050565b5f6020820190508181035f8301526103cf81610396565b9050919050565b60805160a05160c05160e0516101005161012051610f786104785f395f81816104bf01528181610572015261066601525f818161021c0152818161051e015261062901525f8181610240015281816103d30152818161072b01526107e401525f81816102a2015281816104e3015261084701525f81816101f8015261079001525f8181610373015281816103f70152818161042501526109180152610f785ff3fe608060405260043610610089575f3560e01c8063782b360211610058578063782b36021461013a5780637a3bae42146101645780638e19899e1461017a578063aa8c217c146101a2578063d29e6803146101cc57610090565b806350655d8c1461009457806355a373d6146100be57806356ea5f90146100e857806370dea79a1461011057610090565b3661009057005b5f5ffd5b34801561009f575f5ffd5b506100a86101f6565b6040516100b591906109b5565b60405180910390f35b3480156100c9575f5ffd5b506100d261021a565b6040516100df9190610a29565b60405180910390f35b3480156100f3575f5ffd5b5061010e60048036038101906101099190610a79565b61023e565b005b34801561011b575f5ffd5b506101246103d1565b6040516101319190610abc565b60405180910390f35b348015610145575f5ffd5b5061014e6103f5565b60405161015b91906109b5565b60405180910390f35b34801561016f575f5ffd5b50610178610419565b005b348015610185575f5ffd5b506101a0600480360381019061019b9190610a79565b610423565b005b3480156101ad575f5ffd5b506101b66104bd565b6040516101c39190610abc565b60405180910390f35b3480156101d7575f5ffd5b506101e06104e1565b6040516101ed9190610ae4565b60405180910390f35b7f000000000000000000000000000000000000000000000000000000000000000081565b7f000000000000000000000000000000000000000000000000000000000000000081565b7f000000000000000000000000000000000000000000000000000000000000000042116102a0576040517f08c379a000000000000000000000000000000000000000000000000000000000815260040161029790610b57565b60405180910390fd5b7f00000000000000000000000000000000000000000000000000000000000000006002826040516020016102d49190610b95565b6040516020818303038152906040526040516102f09190610c01565b602060405180830381855afa15801561030b573d5f5f3e3d5ffd5b5050506040513d601f19601f8201168201806040525081019061032e9190610c2b565b1461036e576040517f08c379a000000000000000000000000000000000000000000000000000000000815260040161036590610ca0565b60405180910390fd5b6103977f0000000000000000000000000000000000000000000000000000000000000000610505565b7f44654674e66e9e53d34afdf3e9513fb94b4c8b946e980d6958ef4e6a37a153e3816040516103c69190610ae4565b60405180910390a150565b7f000000000000000000000000000000000000000000000000000000000000000081565b7f000000000000000000000000000000000000000000000000000000000000000081565b610421610729565b565b7f000000000000000000000000000000000000000000000000000000000000000073ffffffffffffffffffffffffffffffffffffffff163373ffffffffffffffffffffffffffffffffffffffff16146104b1576040517f08c379a00000000000000000000000000000000000000000000000000000000081526004016104a890610d2e565b60405180910390fd5b6104ba816107e2565b50565b7f000000000000000000000000000000000000000000000000000000000000000081565b7f000000000000000000000000000000000000000000000000000000000000000081565b5f73ffffffffffffffffffffffffffffffffffffffff167f000000000000000000000000000000000000000000000000000000000000000073ffffffffffffffffffffffffffffffffffffffff1603610626575f8173ffffffffffffffffffffffffffffffffffffffff167f000000000000000000000000000000000000000000000000000000000000000060405161059d90610d6f565b5f6040518083038185875af1925050503d805f81146105d7576040519150601f19603f3d011682016040523d82523d5f602084013e6105dc565b606091505b5050905080610620576040517f08c379a000000000000000000000000000000000000000000000000000000000815260040161061790610dcd565b60405180910390fd5b50610726565b5f7f000000000000000000000000000000000000000000000000000000000000000073ffffffffffffffffffffffffffffffffffffffff1663a9059cbb837f00000000000000000000000000000000000000000000000000000000000000006040518363ffffffff1660e01b81526004016106a2929190610deb565b6020604051808303815f875af11580156106be573d5f5f3e3d5ffd5b505050506040513d601f19601f820116820180604052508101906106e29190610e47565b905080610724576040517f08c379a000000000000000000000000000000000000000000000000000000000815260040161071b90610ebc565b60405180910390fd5b505b50565b7f0000000000000000000000000000000000000000000000000000000000000000421161078b576040517f08c379a000000000000000000000000000000000000000000000000000000000815260040161078290610b57565b60405180910390fd5b6107b47f0000000000000000000000000000000000000000000000000000000000000000610505565b7f63b958841f79ab97cb5456da181454b9932c0e15a3b17f1cbd27e2a8bc61043760405160405180910390a1565b7f0000000000000000000000000000000000000000000000000000000000000000421115610845576040517f08c379a000000000000000000000000000000000000000000000000000000000815260040161083c90610f24565b60405180910390fd5b7f00000000000000000000000000000000000000000000000000000000000000006002826040516020016108799190610b95565b6040516020818303038152906040526040516108959190610c01565b602060405180830381855afa1580156108b0573d5f5f3e3d5ffd5b5050506040513d601f19601f820116820180604052508101906108d39190610c2b565b14610913576040517f08c379a000000000000000000000000000000000000000000000000000000000815260040161090a90610ca0565b60405180910390fd5b61093c7f0000000000000000000000000000000000000000000000000000000000000000610505565b7f44654674e66e9e53d34afdf3e9513fb94b4c8b946e980d6958ef4e6a37a153e38160405161096b9190610ae4565b60405180910390a150565b5f73ffffffffffffffffffffffffffffffffffffffff82169050919050565b5f61099f82610976565b9050919050565b6109af81610995565b82525050565b5f6020820190506109c85f8301846109a6565b92915050565b5f819050919050565b5f6109f16109ec6109e784610976565b6109ce565b610976565b9050919050565b5f610a02826109d7565b9050919050565b5f610a13826109f8565b9050919050565b610a2381610a09565b82525050565b5f602082019050610a3c5f830184610a1a565b92915050565b5f5ffd5b5f819050919050565b610a5881610a46565b8114610a62575f5ffd5b50565b5f81359050610a7381610a4f565b92915050565b5f60208284031215610a8e57610a8d610a42565b5b5f610a9b84828501610a65565b91505092915050565b5f819050919050565b610ab681610aa4565b82525050565b5f602082019050610acf5f830184610aad565b92915050565b610ade81610a46565b82525050565b5f602082019050610af75f830184610ad5565b92915050565b5f82825260208201905092915050565b7f457363726f773a2074696d656f757420686173206e6f742070617373656400005f82015250565b5f610b41601e83610afd565b9150610b4c82610b0d565b602082019050919050565b5f6020820190508181035f830152610b6e81610b35565b9050919050565b5f819050919050565b610b8f610b8a82610a46565b610b75565b82525050565b5f610ba08284610b7e565b60208201915081905092915050565b5f81519050919050565b5f81905092915050565b8281835e5f83830152505050565b5f610bdb82610baf565b610be58185610bb9565b9350610bf5818560208601610bc3565b80840191505092915050565b5f610c0c8284610bd1565b915081905092915050565b5f81519050610c2581610a4f565b92915050565b5f60208284031215610c4057610c3f610a42565b5b5f610c4d84828501610c17565b91505092915050565b7f457363726f773a20696e76616c696420736563726574000000000000000000005f82015250565b5f610c8a601683610afd565b9150610c9582610c56565b602082019050919050565b5f6020820190508181035f830152610cb781610c7e565b9050919050565b7f457363726f774473743a2063616c6c6572206973206e6f74207468652074616b5f8201527f6572000000000000000000000000000000000000000000000000000000000000602082015250565b5f610d18602283610afd565b9150610d2382610cbe565b604082019050919050565b5f6020820190508181035f830152610d4581610d0c565b9050919050565b50565b5f610d5a5f83610bb9565b9150610d6582610d4c565b5f82019050919050565b5f610d7982610d4f565b9150819050919050565b7f457363726f773a206e6174697665207472616e73666572206661696c656400005f82015250565b5f610db7601e83610afd565b9150610dc282610d83565b602082019050919050565b5f6020820190508181035f830152610de481610dab565b9050919050565b5f604082019050610dfe5f8301856109a6565b610e0b6020830184610aad565b9392505050565b5f8115159050919050565b610e2681610e12565b8114610e30575f5ffd5b50565b5f81519050610e4181610e1d565b92915050565b5f60208284031215610e5c57610e5b610a42565b5b5f610e6984828501610e33565b91505092915050565b7f457363726f773a204552433230207472616e73666572206661696c65640000005f82015250565b5f610ea6601d83610afd565b9150610eb182610e72565b602082019050919050565b5f6020820190508181035f830152610ed381610e9a565b9050919050565b7f457363726f773a2074696d656f757420686173207061737365640000000000005f82015250565b5f610f0e601a83610afd565b9150610f1982610eda565b602082019050919050565b5f6020820190508181035f830152610f3b81610f02565b905091905056fea2646970667358221220e21ea89cf36d1ed69812812e9e3ce01a76dce45268b9232a157f7a4e91415ed664736f6c634300081e0033a2646970667358221220051a0c7a41f91a45521f1300f699876e7007c93550042273265044b103e3a3c564736f6c634300081e0033","linkReferences":{}},"methodIdentifiers":{"addressOfEscrowDst(address,address,bytes32,uint256,address,uint256,bytes32)":"eed5f711","addressOfEscrowSrc(address,address,bytes32,uint256,address,uint256,bytes32)":"11bd9046","createDstEscrow(address,address,bytes32,uint256,address,uint256,bytes32)":"316a2641","createSrcEscrow(address,address,bytes32,uint256,address,uint256,bytes32)":"e31b04df"},"id":4}