{"abi":[{"type":"function","name":"addressOfEscrowDst","inputs":[{"name":"taker","type":"address","internalType":"address"},{"name":"maker","type":"address","internalType":"address"},{"name":"secretHash","type":"bytes32","internalType":"bytes32"},{"name":"timeout","type":"uint256","internalType":"uint256"},{"name":"tokenContract","type":"address","internalType":"address"},{"name":"amount","type":"uint256","internalType":"uint256"},{"name":"safetyDeposit","type":"uint256","internalType":"uint256"},{"name":"salt","type":"bytes32","internalType":"bytes32"}],"outputs":[{"name":"","type":"address","internalType":"address"}],"stateMutability":"view"},{"type":"function","name":"addressOfEscrowSrc","inputs":[{"name":"taker","type":"address","internalType":"address"},{"name":"maker","type":"address","internalType":"address"},{"name":"secretHash","type":"bytes32","internalType":"bytes32"},{"name":"timeout","type":"uint256","internalType":"uint256"},{"name":"tokenContract","type":"address","internalType":"address"},{"name":"amount","type":"uint256","internalType":"uint256"},{"name":"safetyDeposit","type":"uint256","internalType":"uint256"},{"name":"salt","type":"bytes32","internalType":"bytes32"}],"outputs":[{"name":"","type":"address","internalType":"address"}],"stateMutability":"view"},{"type":"function","name":"createDstEscrow","inputs":[{"name":"taker","type":"address","internalType":"address"},{"name":"maker","type":"address","internalType":"address"},{"name":"secretHash","type":"bytes32","internalType":"bytes32"},{"name":"timeout","type":"uint256","internalType":"uint256"},{"name":"tokenContract","type":"address","internalType":"address"},{"name":"amount","type":"uint256","internalType":"uint256"},{"name":"safetyDeposit","type":"uint256","internalType":"uint256"},{"name":"salt","type":"bytes32","internalType":"bytes32"}],"outputs":[{"name":"","type":"address","internalType":"address"}],"stateMutability":"payable"},{"type":"function","name":"createSrcEscrow","inputs":[{"name":"taker","type":"address","internalType":"address"},{"name":"maker","type":"address","internalType":"address"},{"name":"secretHash","type":"bytes32","internalType":"bytes32"},{"name":"timeout","type":"uint256","internalType":"uint256"},{"name":"tokenContract","type":"address","internalType":"address"},{"name":"amount","type":"uint256","internalType":"uint256"},{"name":"safetyDeposit","type":"uint256","internalType":"uint256"},{"name":"salt","type":"bytes32","internalType":"bytes32"}],"outputs":[{"name":"","type":"address","internalType":"address"}],"stateMutability":"payable"},{"type":"event","name":"CreatedEscrow","inputs":[{"name":"escrow","type":"address","indexed":true,"internalType":"address"},{"name":"creator","type":"address","indexed":true,"internalType":"address"},{"name":"isSrc","type":"bool","indexed":false,"internalType":"bool"},{"name":"secretHash","type":"bytes32","indexed":true,"internalType":"bytes32"}],"anonymous":false}],"bytecode":{"object":"0x6080604052348015600e575f5ffd5b506153c58061001c5f395ff3fe60806040526004361061003e575f3560e01c806330a63432146100425780636e823adb1461007e578063809d9b9b146100ae578063ff2e9a54146100de575b5f5ffd5b34801561004d575f5ffd5b5061006860048036038101906100639190610a2d565b61011a565b6040516100759190610aed565b60405180910390f35b61009860048036038101906100939190610a2d565b6101d7565b6040516100a59190610aed565b60405180910390f35b6100c860048036038101906100c39190610a2d565b610535565b6040516100d59190610aed565b60405180910390f35b3480156100e9575f5ffd5b5061010460048036038101906100ff9190610a2d565b610892565b6040516101119190610aed565b60405180910390f35b5f5f6040518060200161012c9061094f565b6020820181038252601f19601f820116604052508a8a8a8a8a8a8a60405160200161015d9796959493929190610b24565b60405160208183030381529060405260405160200161017d929190610be3565b604051602081830303815290604052905060ff60f81b308483805190602001206040516020016101b09493929190610cb6565b604051602081830303815290604052805190602001205f1c91505098975050505050505050565b5f5f828a8a8a8a8a8a8a6040516101ed9061095c565b6101fd9796959493929190610b24565b8190604051809103905ff590508015801561021a573d5f5f3e3d5ffd5b5090505f73ffffffffffffffffffffffffffffffffffffffff168673ffffffffffffffffffffffffffffffffffffffff160361034b57838561025c9190610d30565b341461029d576040517f08c379a000000000000000000000000000000000000000000000000000000000815260040161029490610dbd565b60405180910390fd5b5f8173ffffffffffffffffffffffffffffffffffffffff16346040516102c290610dfe565b5f6040518083038185875af1925050503d805f81146102fc576040519150601f19603f3d011682016040523d82523d5f602084013e610301565b606091505b5050905080610345576040517f08c379a000000000000000000000000000000000000000000000000000000000815260040161033c90610e5c565b60405180910390fd5b506104be565b83341461038d576040517f08c379a000000000000000000000000000000000000000000000000000000000815260040161038490610eea565b60405180910390fd5b8573ffffffffffffffffffffffffffffffffffffffff166323b872dd8a83886040518463ffffffff1660e01b81526004016103ca93929190610f08565b6020604051808303815f875af11580156103e6573d5f5f3e3d5ffd5b505050506040513d601f19601f8201168201806040525081019061040a9190610f72565b505f8411156104bd575f8173ffffffffffffffffffffffffffffffffffffffff168560405161043890610dfe565b5f6040518083038185875af1925050503d805f8114610472576040519150601f19603f3d011682016040523d82523d5f602084013e610477565b606091505b50509050806104bb576040517f08c379a00000000000000000000000000000000000000000000000000000000081526004016104b290610fe7565b60405180910390fd5b505b5b878973ffffffffffffffffffffffffffffffffffffffff168273ffffffffffffffffffffffffffffffffffffffff167fd53f4e65deef267db821c7cf94ab653874cfb320fad243c0b5c8cf30aa582c48600160405161051d9190611014565b60405180910390a48091505098975050505050505050565b5f5f828a8a8a8a8a8a8a60405161054b9061094f565b61055b9796959493929190610b24565b8190604051809103905ff5905080158015610578573d5f5f3e3d5ffd5b5090505f73ffffffffffffffffffffffffffffffffffffffff168673ffffffffffffffffffffffffffffffffffffffff16036106a95783856105ba9190610d30565b34146105fb576040517f08c379a00000000000000000000000000000000000000000000000000000000081526004016105f290610dbd565b60405180910390fd5b5f8173ffffffffffffffffffffffffffffffffffffffff163460405161062090610dfe565b5f6040518083038185875af1925050503d805f811461065a576040519150601f19603f3d011682016040523d82523d5f602084013e61065f565b606091505b50509050806106a3576040517f08c379a000000000000000000000000000000000000000000000000000000000815260040161069a90610e5c565b60405180910390fd5b5061081c565b8334146106eb576040517f08c379a00000000000000000000000000000000000000000000000000000000081526004016106e290610eea565b60405180910390fd5b8573ffffffffffffffffffffffffffffffffffffffff166323b872dd8a83886040518463ffffffff1660e01b815260040161072893929190610f08565b6020604051808303815f875af1158015610744573d5f5f3e3d5ffd5b505050506040513d601f19601f820116820180604052508101906107689190610f72565b505f84111561081b575f8173ffffffffffffffffffffffffffffffffffffffff168560405161079690610dfe565b5f6040518083038185875af1925050503d805f81146107d0576040519150601f19603f3d011682016040523d82523d5f602084013e6107d5565b606091505b5050905080610819576040517f08c379a000000000000000000000000000000000000000000000000000000000815260040161081090610fe7565b60405180910390fd5b505b5b878973ffffffffffffffffffffffffffffffffffffffff168273ffffffffffffffffffffffffffffffffffffffff167fd53f4e65deef267db821c7cf94ab653874cfb320fad243c0b5c8cf30aa582c485f60405161087a9190611014565b60405180910390a48091505098975050505050505050565b5f5f604051806020016108a49061095c565b6020820181038252601f19601f820116604052508a8a8a8a8a8a8a6040516020016108d59796959493929190610b24565b6040516020818303038152906040526040516020016108f5929190610be3565b604051602081830303815290604052905060ff60f81b308483805190602001206040516020016109289493929190610cb6565b604051602081830303815290604052805190602001205f1c91505098975050505050505050565b6121b18061102e83390190565b6121b1806131df83390190565b5f5ffd5b5f73ffffffffffffffffffffffffffffffffffffffff82169050919050565b5f6109968261096d565b9050919050565b6109a68161098c565b81146109b0575f5ffd5b50565b5f813590506109c18161099d565b92915050565b5f819050919050565b6109d9816109c7565b81146109e3575f5ffd5b50565b5f813590506109f4816109d0565b92915050565b5f819050919050565b610a0c816109fa565b8114610a16575f5ffd5b50565b5f81359050610a2781610a03565b92915050565b5f5f5f5f5f5f5f5f610100898b031215610a4a57610a49610969565b5b5f610a578b828c016109b3565b9850506020610a688b828c016109b3565b9750506040610a798b828c016109e6565b9650506060610a8a8b828c01610a19565b9550506080610a9b8b828c016109b3565b94505060a0610aac8b828c01610a19565b93505060c0610abd8b828c01610a19565b92505060e0610ace8b828c016109e6565b9150509295985092959890939650565b610ae78161098c565b82525050565b5f602082019050610b005f830184610ade565b92915050565b610b0f816109c7565b82525050565b610b1e816109fa565b82525050565b5f60e082019050610b375f83018a610ade565b610b446020830189610ade565b610b516040830188610b06565b610b5e6060830187610b15565b610b6b6080830186610ade565b610b7860a0830185610b15565b610b8560c0830184610b15565b98975050505050505050565b5f81519050919050565b5f81905092915050565b8281835e5f83830152505050565b5f610bbd82610b91565b610bc78185610b9b565b9350610bd7818560208601610ba5565b80840191505092915050565b5f610bee8285610bb3565b9150610bfa8284610bb3565b91508190509392505050565b5f7fff0000000000000000000000000000000000000000000000000000000000000082169050919050565b5f819050919050565b610c4b610c4682610c06565b610c31565b82525050565b5f8160601b9050919050565b5f610c6782610c51565b9050919050565b5f610c7882610c5d565b9050919050565b610c90610c8b8261098c565b610c6e565b82525050565b5f819050919050565b610cb0610cab826109c7565b610c96565b82525050565b5f610cc18287610c3a565b600182019150610cd18286610c7f565b601482019150610ce18285610c9f565b602082019150610cf18284610c9f565b60208201915081905095945050505050565b7f4e487b71000000000000000000000000000000000000000000000000000000005f52601160045260245ffd5b5f610d3a826109fa565b9150610d45836109fa565b9250828201905080821115610d5d57610d5c610d03565b5b92915050565b5f82825260208201905092915050565b7f466163746f72793a20696e636f7272656374206e61746976652076616c7565005f82015250565b5f610da7601f83610d63565b9150610db282610d73565b602082019050919050565b5f6020820190508181035f830152610dd481610d9b565b9050919050565b50565b5f610de95f83610b9b565b9150610df482610ddb565b5f82019050919050565b5f610e0882610dde565b9150819050919050565b7f466163746f72793a206e6174697665206465706f736974206661696c656400005f82015250565b5f610e46601e83610d63565b9150610e5182610e12565b602082019050919050565b5f6020820190508181035f830152610e7381610e3a565b9050919050565b7f466163746f72793a20696e636f727265637420736166657479206465706f73695f8201527f7400000000000000000000000000000000000000000000000000000000000000602082015250565b5f610ed4602183610d63565b9150610edf82610e7a565b604082019050919050565b5f6020820190508181035f830152610f0181610ec8565b9050919050565b5f606082019050610f1b5f830186610ade565b610f286020830185610ade565b610f356040830184610b15565b949350505050565b5f8115159050919050565b610f5181610f3d565b8114610f5b575f5ffd5b50565b5f81519050610f6c81610f48565b92915050565b5f60208284031215610f8757610f86610969565b5b5f610f9484828501610f5e565b91505092915050565b7f466163746f72793a20736166657479206465706f736974206661696c656400005f82015250565b5f610fd1601e83610d63565b9150610fdc82610f9d565b602082019050919050565b5f6020820190508181035f830152610ffe81610fc5565b9050919050565b61100e81610f3d565b82525050565b5f6020820190506110275f830184611005565b9291505056fe6101606040525f5f5f6101000a81548160ff0219169083151502179055505f5f60016101000a81548160ff021916908315150217905550348015610041575f5ffd5b506040516121b13803806121b1833981810160405281019061006391906102c6565b868686868686865f82116100ac576040517f08c379a00000000000000000000000000000000000000000000000000000000081526004016100a3906103bd565b60405180910390fd5b4284116100ee576040517f08c379a00000000000000000000000000000000000000000000000000000000081526004016100e59061044b565b60405180910390fd5b5f8111610130576040517f08c379a0000000000000000000000000000000000000000000000000000000008152600401610127906104d9565b60405180910390fd5b8673ffffffffffffffffffffffffffffffffffffffff1660808173ffffffffffffffffffffffffffffffffffffffff16815250508573ffffffffffffffffffffffffffffffffffffffff1660a08173ffffffffffffffffffffffffffffffffffffffff16815250508460c081815250508360e081815250508273ffffffffffffffffffffffffffffffffffffffff166101008173ffffffffffffffffffffffffffffffffffffffff168152505081610120818152505080610140818152505050505050505050505050505050506104f7565b5f5ffd5b5f73ffffffffffffffffffffffffffffffffffffffff82169050919050565b5f61022f82610206565b9050919050565b61023f81610225565b8114610249575f5ffd5b50565b5f8151905061025a81610236565b92915050565b5f819050919050565b61027281610260565b811461027c575f5ffd5b50565b5f8151905061028d81610269565b92915050565b5f819050919050565b6102a581610293565b81146102af575f5ffd5b50565b5f815190506102c08161029c565b92915050565b5f5f5f5f5f5f5f60e0888a0312156102e1576102e0610202565b5b5f6102ee8a828b0161024c565b97505060206102ff8a828b0161024c565b96505060406103108a828b0161027f565b95505060606103218a828b016102b2565b94505060806103328a828b0161024c565b93505060a06103438a828b016102b2565b92505060c06103548a828b016102b2565b91505092959891949750929550565b5f82825260208201905092915050565b7f457363726f773a20616d6f756e74206d75737420626520706f736974697665005f82015250565b5f6103a7601f83610363565b91506103b282610373565b602082019050919050565b5f6020820190508181035f8301526103d48161039b565b9050919050565b7f457363726f773a2074696d656f7574206d75737420626520696e2066757475725f8201527f6500000000000000000000000000000000000000000000000000000000000000602082015250565b5f610435602183610363565b9150610440826103db565b604082019050919050565b5f6020820190508181035f83015261046281610429565b9050919050565b7f457363726f773a20736166657479206465706f736974206d75737420626520705f8201527f6f73697469766500000000000000000000000000000000000000000000000000602082015250565b5f6104c3602783610363565b91506104ce82610469565b604082019050919050565b5f6020820190508181035f8301526104f0816104b7565b9050919050565b60805160a05160c05160e051610100516101205161014051611bb36105fe5f395f81816102dd01528181610a44015261117701525f81816107b4015281816108780152818161096c01528181610f6b015261107f01525f8181610325015281816105cd01528181610614015281816108240152818161092f01528181610ef7015261102201525f8181610349015281816106b601528181610afa0152610c7401525f8181610448015281816107e90152610d7401525f818161030101528181610c3c01528181610f340152818161105e015261114001525f81816105320152818161057a015281816106da0152818161070801528181610e5e0152610ea60152611bb35ff3fe6080604052600436106100c5575f3560e01c8063782b36021161007e5780639a82a09a116100585780639a82a09a14610233578063aa8c217c1461025d578063c80ec52214610287578063d29e6803146102b1576100cc565b8063782b3602146101cb5780637a3bae42146101f55780638e19899e1461020b576100cc565b80631732c69f146100d057806350655d8c146100fa57806355a373d61461012457806356ea5f901461014e5780636f9fb98a1461017657806370dea79a146101a1576100cc565b366100cc57005b5f5ffd5b3480156100db575f5ffd5b506100e46102db565b6040516100f19190611242565b60405180910390f35b348015610105575f5ffd5b5061010e6102ff565b60405161011b919061129a565b60405180910390f35b34801561012f575f5ffd5b50610138610323565b604051610145919061130e565b60405180910390f35b348015610159575f5ffd5b50610174600480360381019061016f919061135e565b610347565b005b348015610181575f5ffd5b5061018a6105b2565b604051610198929190611389565b60405180910390f35b3480156101ac575f5ffd5b506101b56106b4565b6040516101c29190611242565b60405180910390f35b3480156101d6575f5ffd5b506101df6106d8565b6040516101ec919061129a565b60405180910390f35b348015610200575f5ffd5b506102096106fc565b005b348015610216575f5ffd5b50610231600480360381019061022c919061135e565b610706565b005b34801561023e575f5ffd5b506102476107a0565b60405161025491906113ca565b60405180910390f35b348015610268575f5ffd5b506102716107b2565b60405161027e9190611242565b60405180910390f35b348015610292575f5ffd5b5061029b6107d6565b6040516102a891906113ca565b60405180910390f35b3480156102bc575f5ffd5b506102c56107e7565b6040516102d291906113f2565b60405180910390f35b7f000000000000000000000000000000000000000000000000000000000000000081565b7f000000000000000000000000000000000000000000000000000000000000000081565b7f000000000000000000000000000000000000000000000000000000000000000081565b7f000000000000000000000000000000000000000000000000000000000000000042116103a9576040517f08c379a00000000000000000000000000000000000000000000000000000000081526004016103a090611465565b60405180910390fd5b5f5f9054906101000a900460ff16156103f7576040517f08c379a00000000000000000000000000000000000000000000000000000000081526004016103ee906114cd565b60405180910390fd5b5f60019054906101000a900460ff1615610446576040517f08c379a000000000000000000000000000000000000000000000000000000000815260040161043d90611535565b60405180910390fd5b7f000000000000000000000000000000000000000000000000000000000000000060028260405160200161047a9190611573565b60405160208183030381529060405260405161049691906115df565b602060405180830381855afa1580156104b1573d5f5f3e3d5ffd5b5050506040513d601f19601f820116820180604052508101906104d49190611609565b14610514576040517f08c379a000000000000000000000000000000000000000000000000000000000815260040161050b9061167e565b60405180910390fd5b60015f5f6101000a81548160ff0219169083151502179055506105567f000000000000000000000000000000000000000000000000000000000000000061080b565b7ff0d0864583a8231b5ff3c9d26b03e84a32b52495111e31e44d49e43a492dc7b2817f00000000000000000000000000000000000000000000000000000000000000006040516105a792919061169c565b60405180910390a150565b5f5f5f73ffffffffffffffffffffffffffffffffffffffff167f000000000000000000000000000000000000000000000000000000000000000073ffffffffffffffffffffffffffffffffffffffff1603610612575f47915091506106b0565b7f000000000000000000000000000000000000000000000000000000000000000073ffffffffffffffffffffffffffffffffffffffff166370a08231306040518263ffffffff1660e01b815260040161066b919061129a565b602060405180830381865afa158015610686573d5f5f3e3d5ffd5b505050506040513d601f19601f820116820180604052508101906106aa91906116ed565b47915091505b9091565b7f000000000000000000000000000000000000000000000000000000000000000081565b7f000000000000000000000000000000000000000000000000000000000000000081565b610704610af8565b565b7f000000000000000000000000000000000000000000000000000000000000000073ffffffffffffffffffffffffffffffffffffffff163373ffffffffffffffffffffffffffffffffffffffff1614610794576040517f08c379a000000000000000000000000000000000000000000000000000000000815260040161078b90611788565b60405180910390fd5b61079d81610c72565b50565b5f60019054906101000a900460ff1681565b7f000000000000000000000000000000000000000000000000000000000000000081565b5f5f9054906101000a900460ff1681565b7f000000000000000000000000000000000000000000000000000000000000000081565b5f73ffffffffffffffffffffffffffffffffffffffff167f000000000000000000000000000000000000000000000000000000000000000073ffffffffffffffffffffffffffffffffffffffff160361092c575f8173ffffffffffffffffffffffffffffffffffffffff167f00000000000000000000000000000000000000000000000000000000000000006040516108a3906117c9565b5f6040518083038185875af1925050503d805f81146108dd576040519150601f19603f3d011682016040523d82523d5f602084013e6108e2565b606091505b5050905080610926576040517f08c379a000000000000000000000000000000000000000000000000000000000815260040161091d90611827565b60405180910390fd5b50610af5565b5f7f000000000000000000000000000000000000000000000000000000000000000073ffffffffffffffffffffffffffffffffffffffff1663a9059cbb837f00000000000000000000000000000000000000000000000000000000000000006040518363ffffffff1660e01b81526004016109a8929190611845565b6020604051808303815f875af11580156109c4573d5f5f3e3d5ffd5b505050506040513d601f19601f820116820180604052508101906109e89190611896565b905080610a2a576040517f08c379a0000000000000000000000000000000000000000000000000000000008152600401610a219061190b565b60405180910390fd5b5f8273ffffffffffffffffffffffffffffffffffffffff167f0000000000000000000000000000000000000000000000000000000000000000604051610a6f906117c9565b5f6040518083038185875af1925050503d805f8114610aa9576040519150601f19603f3d011682016040523d82523d5f602084013e610aae565b606091505b5050905080610af2576040517f08c379a0000000000000000000000000000000000000000000000000000000008152600401610ae990611999565b60405180910390fd5b50505b50565b7f00000000000000000000000000000000000000000000000000000000000000004211610b5a576040517f08c379a0000000000000000000000000000000000000000000000000000000008152600401610b5190611465565b60405180910390fd5b5f5f9054906101000a900460ff1615610ba8576040517f08c379a0000000000000000000000000000000000000000000000000000000008152600401610b9f906114cd565b60405180910390fd5b5f60019054906101000a900460ff1615610bf7576040517f08c379a0000000000000000000000000000000000000000000000000000000008152600401610bee90611535565b60405180910390fd5b60015f60016101000a81548160ff021916908315150217905550610c19610ede565b7f398bd6b21ae4164ec322fb0eb8c2eb6277f36fd41903fbbed594dfe1255912817f0000000000000000000000000000000000000000000000000000000000000000604051610c68919061129a565b60405180910390a1565b7f0000000000000000000000000000000000000000000000000000000000000000421115610cd5576040517f08c379a0000000000000000000000000000000000000000000000000000000008152600401610ccc90611a01565b60405180910390fd5b5f5f9054906101000a900460ff1615610d23576040517f08c379a0000000000000000000000000000000000000000000000000000000008152600401610d1a906114cd565b60405180910390fd5b5f60019054906101000a900460ff1615610d72576040517f08c379a0000000000000000000000000000000000000000000000000000000008152600401610d6990611535565b60405180910390fd5b7f0000000000000000000000000000000000000000000000000000000000000000600282604051602001610da69190611573565b604051602081830303815290604052604051610dc291906115df565b602060405180830381855afa158015610ddd573d5f5f3e3d5ffd5b5050506040513d601f19601f82011682018060405250810190610e009190611609565b14610e40576040517f08c379a0000000000000000000000000000000000000000000000000000000008152600401610e379061167e565b60405180910390fd5b60015f5f6101000a81548160ff021916908315150217905550610e827f000000000000000000000000000000000000000000000000000000000000000061080b565b7ff0d0864583a8231b5ff3c9d26b03e84a32b52495111e31e44d49e43a492dc7b2817f0000000000000000000000000000000000000000000000000000000000000000604051610ed392919061169c565b60405180910390a150565b5f73ffffffffffffffffffffffffffffffffffffffff167f000000000000000000000000000000000000000000000000000000000000000073ffffffffffffffffffffffffffffffffffffffff160361101f575f7f000000000000000000000000000000000000000000000000000000000000000073ffffffffffffffffffffffffffffffffffffffff167f0000000000000000000000000000000000000000000000000000000000000000604051610f96906117c9565b5f6040518083038185875af1925050503d805f8114610fd0576040519150601f19603f3d011682016040523d82523d5f602084013e610fd5565b606091505b5050905080611019576040517f08c379a000000000000000000000000000000000000000000000000000000000815260040161101090611a69565b60405180910390fd5b50611228565b5f7f000000000000000000000000000000000000000000000000000000000000000073ffffffffffffffffffffffffffffffffffffffff1663a9059cbb7f00000000000000000000000000000000000000000000000000000000000000007f00000000000000000000000000000000000000000000000000000000000000006040518363ffffffff1660e01b81526004016110bb929190611845565b6020604051808303815f875af11580156110d7573d5f5f3e3d5ffd5b505050506040513d601f19601f820116820180604052508101906110fb9190611896565b90508061113d576040517f08c379a000000000000000000000000000000000000000000000000000000000815260040161113490611ad1565b60405180910390fd5b5f7f000000000000000000000000000000000000000000000000000000000000000073ffffffffffffffffffffffffffffffffffffffff167f00000000000000000000000000000000000000000000000000000000000000006040516111a2906117c9565b5f6040518083038185875af1925050503d805f81146111dc576040519150601f19603f3d011682016040523d82523d5f602084013e6111e1565b606091505b5050905080611225576040517f08c379a000000000000000000000000000000000000000000000000000000000815260040161121c90611b5f565b60405180910390fd5b50505b565b5f819050919050565b61123c8161122a565b82525050565b5f6020820190506112555f830184611233565b92915050565b5f73ffffffffffffffffffffffffffffffffffffffff82169050919050565b5f6112848261125b565b9050919050565b6112948161127a565b82525050565b5f6020820190506112ad5f83018461128b565b92915050565b5f819050919050565b5f6112d66112d16112cc8461125b565b6112b3565b61125b565b9050919050565b5f6112e7826112bc565b9050919050565b5f6112f8826112dd565b9050919050565b611308816112ee565b82525050565b5f6020820190506113215f8301846112ff565b92915050565b5f5ffd5b5f819050919050565b61133d8161132b565b8114611347575f5ffd5b50565b5f8135905061135881611334565b92915050565b5f6020828403121561137357611372611327565b5b5f6113808482850161134a565b91505092915050565b5f60408201905061139c5f830185611233565b6113a96020830184611233565b9392505050565b5f8115159050919050565b6113c4816113b0565b82525050565b5f6020820190506113dd5f8301846113bb565b92915050565b6113ec8161132b565b82525050565b5f6020820190506114055f8301846113e3565b92915050565b5f82825260208201905092915050565b7f457363726f773a2074696d656f757420686173206e6f742070617373656400005f82015250565b5f61144f601e8361140b565b915061145a8261141b565b602082019050919050565b5f6020820190508181035f83015261147c81611443565b9050919050565b7f457363726f773a20616c72656164792077697468647261776e000000000000005f82015250565b5f6114b760198361140b565b91506114c282611483565b602082019050919050565b5f6020820190508181035f8301526114e4816114ab565b9050919050565b7f457363726f773a20616c72656164792063616e63656c6c6564000000000000005f82015250565b5f61151f60198361140b565b915061152a826114eb565b602082019050919050565b5f6020820190508181035f83015261154c81611513565b9050919050565b5f819050919050565b61156d6115688261132b565b611553565b82525050565b5f61157e828461155c565b60208201915081905092915050565b5f81519050919050565b5f81905092915050565b8281835e5f83830152505050565b5f6115b98261158d565b6115c38185611597565b93506115d38185602086016115a1565b80840191505092915050565b5f6115ea82846115af565b915081905092915050565b5f8151905061160381611334565b92915050565b5f6020828403121561161e5761161d611327565b5b5f61162b848285016115f5565b91505092915050565b7f457363726f773a20696e76616c696420736563726574000000000000000000005f82015250565b5f61166860168361140b565b915061167382611634565b602082019050919050565b5f6020820190508181035f8301526116958161165c565b9050919050565b5f6040820190506116af5f8301856113e3565b6116bc602083018461128b565b9392505050565b6116cc8161122a565b81146116d6575f5ffd5b50565b5f815190506116e7816116c3565b92915050565b5f6020828403121561170257611701611327565b5b5f61170f848285016116d9565b91505092915050565b7f457363726f774473743a2063616c6c6572206973206e6f7420746865207573655f8201527f7200000000000000000000000000000000000000000000000000000000000000602082015250565b5f61177260218361140b565b915061177d82611718565b604082019050919050565b5f6020820190508181035f83015261179f81611766565b9050919050565b50565b5f6117b45f83611597565b91506117bf826117a6565b5f82019050919050565b5f6117d3826117a9565b9150819050919050565b7f457363726f773a206e6174697665207472616e73666572206661696c656400005f82015250565b5f611811601e8361140b565b915061181c826117dd565b602082019050919050565b5f6020820190508181035f83015261183e81611805565b9050919050565b5f6040820190506118585f83018561128b565b6118656020830184611233565b9392505050565b611875816113b0565b811461187f575f5ffd5b50565b5f815190506118908161186c565b92915050565b5f602082840312156118ab576118aa611327565b5b5f6118b884828501611882565b91505092915050565b7f457363726f773a204552433230207472616e73666572206661696c65640000005f82015250565b5f6118f5601d8361140b565b9150611900826118c1565b602082019050919050565b5f6020820190508181035f830152611922816118e9565b9050919050565b7f457363726f773a20736166657479206465706f7369742072657475726e2066615f8201527f696c656400000000000000000000000000000000000000000000000000000000602082015250565b5f61198360248361140b565b915061198e82611929565b604082019050919050565b5f6020820190508181035f8301526119b081611977565b9050919050565b7f457363726f773a2074696d656f757420686173207061737365640000000000005f82015250565b5f6119eb601a8361140b565b91506119f6826119b7565b602082019050919050565b5f6020820190508181035f830152611a18816119df565b9050919050565b7f457363726f773a206e617469766520726566756e64206661696c6564000000005f82015250565b5f611a53601c8361140b565b9150611a5e82611a1f565b602082019050919050565b5f6020820190508181035f830152611a8081611a47565b9050919050565b7f457363726f773a20455243323020726566756e64206661696c656400000000005f82015250565b5f611abb601b8361140b565b9150611ac682611a87565b602082019050919050565b5f6020820190508181035f830152611ae881611aaf565b9050919050565b7f457363726f773a20736166657479206465706f73697420726566756e642066615f8201527f696c656400000000000000000000000000000000000000000000000000000000602082015250565b5f611b4960248361140b565b9150611b5482611aef565b604082019050919050565b5f6020820190508181035f830152611b7681611b3d565b905091905056fea2646970667358221220fe289749047fadaf3765b86ac317324e3d617e3217ca273b78f0d7a44b1871b464736f6c634300081e00336101606040525f5f5f6101000a81548160ff0219169083151502179055505f5f60016101000a81548160ff021916908315150217905550348015610041575f5ffd5b506040516121b13803806121b1833981810160405281019061006391906102c6565b868686868686865f82116100ac576040517f08c379a00000000000000000000000000000000000000000000000000000000081526004016100a3906103bd565b60405180910390fd5b4284116100ee576040517f08c379a00000000000000000000000000000000000000000000000000000000081526004016100e59061044b565b60405180910390fd5b5f8111610130576040517f08c379a0000000000000000000000000000000000000000000000000000000008152600401610127906104d9565b60405180910390fd5b8673ffffffffffffffffffffffffffffffffffffffff1660808173ffffffffffffffffffffffffffffffffffffffff16815250508573ffffffffffffffffffffffffffffffffffffffff1660a08173ffffffffffffffffffffffffffffffffffffffff16815250508460c081815250508360e081815250508273ffffffffffffffffffffffffffffffffffffffff166101008173ffffffffffffffffffffffffffffffffffffffff168152505081610120818152505080610140818152505050505050505050505050505050506104f7565b5f5ffd5b5f73ffffffffffffffffffffffffffffffffffffffff82169050919050565b5f61022f82610206565b9050919050565b61023f81610225565b8114610249575f5ffd5b50565b5f8151905061025a81610236565b92915050565b5f819050919050565b61027281610260565b811461027c575f5ffd5b50565b5f8151905061028d81610269565b92915050565b5f819050919050565b6102a581610293565b81146102af575f5ffd5b50565b5f815190506102c08161029c565b92915050565b5f5f5f5f5f5f5f60e0888a0312156102e1576102e0610202565b5b5f6102ee8a828b0161024c565b97505060206102ff8a828b0161024c565b96505060406103108a828b0161027f565b95505060606103218a828b016102b2565b94505060806103328a828b0161024c565b93505060a06103438a828b016102b2565b92505060c06103548a828b016102b2565b91505092959891949750929550565b5f82825260208201905092915050565b7f457363726f773a20616d6f756e74206d75737420626520706f736974697665005f82015250565b5f6103a7601f83610363565b91506103b282610373565b602082019050919050565b5f6020820190508181035f8301526103d48161039b565b9050919050565b7f457363726f773a2074696d656f7574206d75737420626520696e2066757475725f8201527f6500000000000000000000000000000000000000000000000000000000000000602082015250565b5f610435602183610363565b9150610440826103db565b604082019050919050565b5f6020820190508181035f83015261046281610429565b9050919050565b7f457363726f773a20736166657479206465706f736974206d75737420626520705f8201527f6f73697469766500000000000000000000000000000000000000000000000000602082015250565b5f6104c3602783610363565b91506104ce82610469565b604082019050919050565b5f6020820190508181035f8301526104f0816104b7565b9050919050565b60805160a05160c05160e051610100516101205161014051611bb36105fe5f395f81816102dd01528181610a44015261117701525f81816107b4015281816108780152818161096c01528181610f6b015261107f01525f8181610325015281816105cd01528181610614015281816108240152818161092f01528181610ef7015261102201525f8181610349015281816106b601528181610afa0152610c7401525f8181610448015281816107e90152610d7401525f818161030101528181610c3c01528181610f340152818161105e015261114001525f81816105320152818161057a015281816106da0152818161070801528181610e5e0152610ea60152611bb35ff3fe6080604052600436106100c5575f3560e01c8063782b36021161007e5780639a82a09a116100585780639a82a09a14610233578063aa8c217c1461025d578063c80ec52214610287578063d29e6803146102b1576100cc565b8063782b3602146101cb5780637a3bae42146101f55780638e19899e1461020b576100cc565b80631732c69f146100d057806350655d8c146100fa57806355a373d61461012457806356ea5f901461014e5780636f9fb98a1461017657806370dea79a146101a1576100cc565b366100cc57005b5f5ffd5b3480156100db575f5ffd5b506100e46102db565b6040516100f19190611242565b60405180910390f35b348015610105575f5ffd5b5061010e6102ff565b60405161011b919061129a565b60405180910390f35b34801561012f575f5ffd5b50610138610323565b604051610145919061130e565b60405180910390f35b348015610159575f5ffd5b50610174600480360381019061016f919061135e565b610347565b005b348015610181575f5ffd5b5061018a6105b2565b604051610198929190611389565b60405180910390f35b3480156101ac575f5ffd5b506101b56106b4565b6040516101c29190611242565b60405180910390f35b3480156101d6575f5ffd5b506101df6106d8565b6040516101ec919061129a565b60405180910390f35b348015610200575f5ffd5b506102096106fc565b005b348015610216575f5ffd5b50610231600480360381019061022c919061135e565b610706565b005b34801561023e575f5ffd5b506102476107a0565b60405161025491906113ca565b60405180910390f35b348015610268575f5ffd5b506102716107b2565b60405161027e9190611242565b60405180910390f35b348015610292575f5ffd5b5061029b6107d6565b6040516102a891906113ca565b60405180910390f35b3480156102bc575f5ffd5b506102c56107e7565b6040516102d291906113f2565b60405180910390f35b7f000000000000000000000000000000000000000000000000000000000000000081565b7f000000000000000000000000000000000000000000000000000000000000000081565b7f000000000000000000000000000000000000000000000000000000000000000081565b7f000000000000000000000000000000000000000000000000000000000000000042116103a9576040517f08c379a00000000000000000000000000000000000000000000000000000000081526004016103a090611465565b60405180910390fd5b5f5f9054906101000a900460ff16156103f7576040517f08c379a00000000000000000000000000000000000000000000000000000000081526004016103ee906114cd565b60405180910390fd5b5f60019054906101000a900460ff1615610446576040517f08c379a000000000000000000000000000000000000000000000000000000000815260040161043d90611535565b60405180910390fd5b7f000000000000000000000000000000000000000000000000000000000000000060028260405160200161047a9190611573565b60405160208183030381529060405260405161049691906115df565b602060405180830381855afa1580156104b1573d5f5f3e3d5ffd5b5050506040513d601f19601f820116820180604052508101906104d49190611609565b14610514576040517f08c379a000000000000000000000000000000000000000000000000000000000815260040161050b9061167e565b60405180910390fd5b60015f5f6101000a81548160ff0219169083151502179055506105567f000000000000000000000000000000000000000000000000000000000000000061080b565b7ff0d0864583a8231b5ff3c9d26b03e84a32b52495111e31e44d49e43a492dc7b2817f00000000000000000000000000000000000000000000000000000000000000006040516105a792919061169c565b60405180910390a150565b5f5f5f73ffffffffffffffffffffffffffffffffffffffff167f000000000000000000000000000000000000000000000000000000000000000073ffffffffffffffffffffffffffffffffffffffff1603610612575f47915091506106b0565b7f000000000000000000000000000000000000000000000000000000000000000073ffffffffffffffffffffffffffffffffffffffff166370a08231306040518263ffffffff1660e01b815260040161066b919061129a565b602060405180830381865afa158015610686573d5f5f3e3d5ffd5b505050506040513d601f19601f820116820180604052508101906106aa91906116ed565b47915091505b9091565b7f000000000000000000000000000000000000000000000000000000000000000081565b7f000000000000000000000000000000000000000000000000000000000000000081565b610704610af8565b565b7f000000000000000000000000000000000000000000000000000000000000000073ffffffffffffffffffffffffffffffffffffffff163373ffffffffffffffffffffffffffffffffffffffff1614610794576040517f08c379a000000000000000000000000000000000000000000000000000000000815260040161078b90611788565b60405180910390fd5b61079d81610c72565b50565b5f60019054906101000a900460ff1681565b7f000000000000000000000000000000000000000000000000000000000000000081565b5f5f9054906101000a900460ff1681565b7f000000000000000000000000000000000000000000000000000000000000000081565b5f73ffffffffffffffffffffffffffffffffffffffff167f000000000000000000000000000000000000000000000000000000000000000073ffffffffffffffffffffffffffffffffffffffff160361092c575f8173ffffffffffffffffffffffffffffffffffffffff167f00000000000000000000000000000000000000000000000000000000000000006040516108a3906117c9565b5f6040518083038185875af1925050503d805f81146108dd576040519150601f19603f3d011682016040523d82523d5f602084013e6108e2565b606091505b5050905080610926576040517f08c379a000000000000000000000000000000000000000000000000000000000815260040161091d90611827565b60405180910390fd5b50610af5565b5f7f000000000000000000000000000000000000000000000000000000000000000073ffffffffffffffffffffffffffffffffffffffff1663a9059cbb837f00000000000000000000000000000000000000000000000000000000000000006040518363ffffffff1660e01b81526004016109a8929190611845565b6020604051808303815f875af11580156109c4573d5f5f3e3d5ffd5b505050506040513d601f19601f820116820180604052508101906109e89190611896565b905080610a2a576040517f08c379a0000000000000000000000000000000000000000000000000000000008152600401610a219061190b565b60405180910390fd5b5f8273ffffffffffffffffffffffffffffffffffffffff167f0000000000000000000000000000000000000000000000000000000000000000604051610a6f906117c9565b5f6040518083038185875af1925050503d805f8114610aa9576040519150601f19603f3d011682016040523d82523d5f602084013e610aae565b606091505b5050905080610af2576040517f08c379a0000000000000000000000000000000000000000000000000000000008152600401610ae990611999565b60405180910390fd5b50505b50565b7f00000000000000000000000000000000000000000000000000000000000000004211610b5a576040517f08c379a0000000000000000000000000000000000000000000000000000000008152600401610b5190611465565b60405180910390fd5b5f5f9054906101000a900460ff1615610ba8576040517f08c379a0000000000000000000000000000000000000000000000000000000008152600401610b9f906114cd565b60405180910390fd5b5f60019054906101000a900460ff1615610bf7576040517f08c379a0000000000000000000000000000000000000000000000000000000008152600401610bee90611535565b60405180910390fd5b60015f60016101000a81548160ff021916908315150217905550610c19610ede565b7f398bd6b21ae4164ec322fb0eb8c2eb6277f36fd41903fbbed594dfe1255912817f0000000000000000000000000000000000000000000000000000000000000000604051610c68919061129a565b60405180910390a1565b7f0000000000000000000000000000000000000000000000000000000000000000421115610cd5576040517f08c379a0000000000000000000000000000000000000000000000000000000008152600401610ccc90611a01565b60405180910390fd5b5f5f9054906101000a900460ff1615610d23576040517f08c379a0000000000000000000000000000000000000000000000000000000008152600401610d1a906114cd565b60405180910390fd5b5f60019054906101000a900460ff1615610d72576040517f08c379a0000000000000000000000000000000000000000000000000000000008152600401610d6990611535565b60405180910390fd5b7f0000000000000000000000000000000000000000000000000000000000000000600282604051602001610da69190611573565b604051602081830303815290604052604051610dc291906115df565b602060405180830381855afa158015610ddd573d5f5f3e3d5ffd5b5050506040513d601f19601f82011682018060405250810190610e009190611609565b14610e40576040517f08c379a0000000000000000000000000000000000000000000000000000000008152600401610e379061167e565b60405180910390fd5b60015f5f6101000a81548160ff021916908315150217905550610e827f000000000000000000000000000000000000000000000000000000000000000061080b565b7ff0d0864583a8231b5ff3c9d26b03e84a32b52495111e31e44d49e43a492dc7b2817f0000000000000000000000000000000000000000000000000000000000000000604051610ed392919061169c565b60405180910390a150565b5f73ffffffffffffffffffffffffffffffffffffffff167f000000000000000000000000000000000000000000000000000000000000000073ffffffffffffffffffffffffffffffffffffffff160361101f575f7f000000000000000000000000000000000000000000000000000000000000000073ffffffffffffffffffffffffffffffffffffffff167f0000000000000000000000000000000000000000000000000000000000000000604051610f96906117c9565b5f6040518083038185875af1925050503d805f8114610fd0576040519150601f19603f3d011682016040523d82523d5f602084013e610fd5565b606091505b5050905080611019576040517f08c379a000000000000000000000000000000000000000000000000000000000815260040161101090611a69565b60405180910390fd5b50611228565b5f7f000000000000000000000000000000000000000000000000000000000000000073ffffffffffffffffffffffffffffffffffffffff1663a9059cbb7f00000000000000000000000000000000000000000000000000000000000000007f00000000000000000000000000000000000000000000000000000000000000006040518363ffffffff1660e01b81526004016110bb929190611845565b6020604051808303815f875af11580156110d7573d5f5f3e3d5ffd5b505050506040513d601f19601f820116820180604052508101906110fb9190611896565b90508061113d576040517f08c379a000000000000000000000000000000000000000000000000000000000815260040161113490611ad1565b60405180910390fd5b5f7f000000000000000000000000000000000000000000000000000000000000000073ffffffffffffffffffffffffffffffffffffffff167f00000000000000000000000000000000000000000000000000000000000000006040516111a2906117c9565b5f6040518083038185875af1925050503d805f81146111dc576040519150601f19603f3d011682016040523d82523d5f602084013e6111e1565b606091505b5050905080611225576040517f08c379a000000000000000000000000000000000000000000000000000000000815260040161121c90611b5f565b60405180910390fd5b50505b565b5f819050919050565b61123c8161122a565b82525050565b5f6020820190506112555f830184611233565b92915050565b5f73ffffffffffffffffffffffffffffffffffffffff82169050919050565b5f6112848261125b565b9050919050565b6112948161127a565b82525050565b5f6020820190506112ad5f83018461128b565b92915050565b5f819050919050565b5f6112d66112d16112cc8461125b565b6112b3565b61125b565b9050919050565b5f6112e7826112bc565b9050919050565b5f6112f8826112dd565b9050919050565b611308816112ee565b82525050565b5f6020820190506113215f8301846112ff565b92915050565b5f5ffd5b5f819050919050565b61133d8161132b565b8114611347575f5ffd5b50565b5f8135905061135881611334565b92915050565b5f6020828403121561137357611372611327565b5b5f6113808482850161134a565b91505092915050565b5f60408201905061139c5f830185611233565b6113a96020830184611233565b9392505050565b5f8115159050919050565b6113c4816113b0565b82525050565b5f6020820190506113dd5f8301846113bb565b92915050565b6113ec8161132b565b82525050565b5f6020820190506114055f8301846113e3565b92915050565b5f82825260208201905092915050565b7f457363726f773a2074696d656f757420686173206e6f742070617373656400005f82015250565b5f61144f601e8361140b565b915061145a8261141b565b602082019050919050565b5f6020820190508181035f83015261147c81611443565b9050919050565b7f457363726f773a20616c72656164792077697468647261776e000000000000005f82015250565b5f6114b760198361140b565b91506114c282611483565b602082019050919050565b5f6020820190508181035f8301526114e4816114ab565b9050919050565b7f457363726f773a20616c72656164792063616e63656c6c6564000000000000005f82015250565b5f61151f60198361140b565b915061152a826114eb565b602082019050919050565b5f6020820190508181035f83015261154c81611513565b9050919050565b5f819050919050565b61156d6115688261132b565b611553565b82525050565b5f61157e828461155c565b60208201915081905092915050565b5f81519050919050565b5f81905092915050565b8281835e5f83830152505050565b5f6115b98261158d565b6115c38185611597565b93506115d38185602086016115a1565b80840191505092915050565b5f6115ea82846115af565b915081905092915050565b5f8151905061160381611334565b92915050565b5f6020828403121561161e5761161d611327565b5b5f61162b848285016115f5565b91505092915050565b7f457363726f773a20696e76616c696420736563726574000000000000000000005f82015250565b5f61166860168361140b565b915061167382611634565b602082019050919050565b5f6020820190508181035f8301526116958161165c565b9050919050565b5f6040820190506116af5f8301856113e3565b6116bc602083018461128b565b9392505050565b6116cc8161122a565b81146116d6575f5ffd5b50565b5f815190506116e7816116c3565b92915050565b5f6020828403121561170257611701611327565b5b5f61170f848285016116d9565b91505092915050565b7f457363726f775372633a2063616c6c6572206973206e6f7420746865207265735f8201527f6f6c766572000000000000000000000000000000000000000000000000000000602082015250565b5f61177260258361140b565b915061177d82611718565b604082019050919050565b5f6020820190508181035f83015261179f81611766565b9050919050565b50565b5f6117b45f83611597565b91506117bf826117a6565b5f82019050919050565b5f6117d3826117a9565b9150819050919050565b7f457363726f773a206e6174697665207472616e73666572206661696c656400005f82015250565b5f611811601e8361140b565b915061181c826117dd565b602082019050919050565b5f6020820190508181035f83015261183e81611805565b9050919050565b5f6040820190506118585f83018561128b565b6118656020830184611233565b9392505050565b611875816113b0565b811461187f575f5ffd5b50565b5f815190506118908161186c565b92915050565b5f602082840312156118ab576118aa611327565b5b5f6118b884828501611882565b91505092915050565b7f457363726f773a204552433230207472616e73666572206661696c65640000005f82015250565b5f6118f5601d8361140b565b9150611900826118c1565b602082019050919050565b5f6020820190508181035f830152611922816118e9565b9050919050565b7f457363726f773a20736166657479206465706f7369742072657475726e2066615f8201527f696c656400000000000000000000000000000000000000000000000000000000602082015250565b5f61198360248361140b565b915061198e82611929565b604082019050919050565b5f6020820190508181035f8301526119b081611977565b9050919050565b7f457363726f773a2074696d656f757420686173207061737365640000000000005f82015250565b5f6119eb601a8361140b565b91506119f6826119b7565b602082019050919050565b5f6020820190508181035f830152611a18816119df565b9050919050565b7f457363726f773a206e617469766520726566756e64206661696c6564000000005f82015250565b5f611a53601c8361140b565b9150611a5e82611a1f565b602082019050919050565b5f6020820190508181035f830152611a8081611a47565b9050919050565b7f457363726f773a20455243323020726566756e64206661696c656400000000005f82015250565b5f611abb601b8361140b565b9150611ac682611a87565b602082019050919050565b5f6020820190508181035f830152611ae881611aaf565b9050919050565b7f457363726f773a20736166657479206465706f73697420726566756e642066615f8201527f696c656400000000000000000000000000000000000000000000000000000000602082015250565b5f611b4960248361140b565b9150611b5482611aef565b604082019050919050565b5f6020820190508181035f830152611b7681611b3d565b905091905056fea2646970667358221220560a217e9a9b093e40147671a565b6b2d049d80658328c8afc87f1ae3aba1a6364736f6c634300081e0033a2646970667358221220daf916ab9614240ac7e55aac0d9d33091fad8135046023237a565ed4105e2b6a64736f6c634300081e0033","linkReferences":{}},"methodIdentifiers":{"addressOfEscrowDst(address,address,bytes32,uint256,address,uint256,uint256,bytes32)":"30a63432","addressOfEscrowSrc(address,address,bytes32,uint256,address,uint256,uint256,bytes32)":"ff2e9a54","createDstEscrow(address,address,bytes32,uint256,address,uint256,uint256,bytes32)":"809d9b9b","createSrcEscrow(address,address,bytes32,uint256,address,uint256,uint256,bytes32)":"6e823adb"},"id":3}